:400000000080002011000000357C0000357C000008B5044B1A6803F53F5302331A6007F02FFE00BFFA46004010B5054C237833B9044B13B10448AFF300800123237010BDE1
:40004000A881FF1F000000000C210100084B10B51BB108490848AFF300800848036803B910BD074B002BFBD0BDE81040184700BF00000000AC81FF1F0C210100C880FF1FE6
:4000800000000000074B1B7803F0FC038A69012A04D143F00303034A13707047014A1370704700BF505100408B69012B03D1FF22034B1A7070470022014B1A70704700BF7F
:4000C00020510040024B1A780A7E1A70704700BF205100408A6A8B699B009A40D2B20F2101FA03F303480178C9B24A4013404B40037070472051004008B504F04FFF08BDEF
:4001000008B509F06FF808BD08B50BF0FBFB024A13680133136008BDC481FF1F10B509F0D7FC09F0CDFA0AF0C9F80BF0B9FA09F0C5FD09F0E7FE08F0ADFC04E04FF4046119
:40014000002008F00FFF0B4B1A685B689A42F5DB0024084B1C6008F0A9FD214620460AF075F809F0C9FC09F0EDFA09F03FFE09F061FF10BDC481FF1F10B50C460BF07EFB65
:4001800000220A4B1A60A36903F109000A2803DC0122064B5A6002E0044A53600A20C0B20BF088FB0BF0A0FB10BD00BFC481FF1F08B509F085FA09F08BFC0BF0E1FB0BF0FD
:4001C0005DFB0AF07BF808F065FC08F0BFFF08F06DFD09F091FC09F0B5FA002108460AF035F80BF081FB0BF0AFFB08BDD0B50C46D1E906010BF04AFE06460F46204605F04D
:40020000CBFD05232370C4E90267D0BD38B50C46044B1D78EDB2084605F0BEFD04232370A56038BD2151004038B50C46087E0DF0BFFA02460B4600204FF080410BF0A6FE9F
:400240000DF004FE064B1D782840A36940FA03F5204605F0A1FD04232370A56038BD00BF2151004010B50C46087E0DF0A1FA02460B4600204FF080410BF088FE0DF0E6FD86
:40028000C0B205490B7823EA0003A26AA469A24010401843087010BD2051004038B50C46886901380DF094FA02460B4600204FF080410BF06BFE0DF0C9FD074B1D7828402C
:4002C000A569013D40FA05F5204605F065FD04232370A56038BD00BF5151004038B50C46886901380DF074FA02460B4600204FF080410BF04BFE0DF0A9FDC0B2064D2B7890
:4003000023EA0003A16AA269013A01FA02F210401843287038BD00BF5051004008B58B69012B04D108F05EFF014808F081FF08BD0101000010B508461446114604F000FC52
:40034000204610BD10B508461446114604F0F8FB204610BD10B500240FE0601040EA241000F001000BF052FA04F008FC04F0CCFB38B90A2007F0A0FF0134FF2CEDDD0120DF
:4003800010BD002010BD00BF2DE9F041002003F0B7F8002001F0D4FD002007F0E1F9002007F074FA3C4C22683C49002003F0D4FB0546DFF858813A4B42460146002003F088
:4003C00005FC384F384B3A462946002003F0FEFB364B374A2946002003F0F8FB354E364B32462946002003F0F1FB22683349002003F0B2FB0546324B42460146002003F026
:40040000E5FB304B3A462946002003F0DFFB2E4B2E4A2946002003F0D9FB2D4B32462946002003F0D3FB2B4B2B4A2946002003F0CDFB2A4B2A4A2946002003F0C7FB294B28
:40044000294A2168002003F0C1FB284B284A2168002003F0BBFB274B274A2168002003F0B5FB264B264A2168002003F0AFFB0024244D0BE0244E36F814304BB10021284635
:4004800004F068FE36F814301D440134032CF1DD04F09AFEBDE8F0811810002010210200850000001C210200DD0200001D03000024210200302102009D0200003821020069
:4004C000A900000065020000C50000003C210200290200000D02000048210200D500000054210200ED01000064210200B10100006821020079010000742102001D010000F6
:400500008821020018210100102101001821020008B562B614480BF033F90021084609F095FE0BF0BBF809F065FA10480BF01AFA0BF0DAF908F0D0FE04F0DCFA47F61E01EF
:400540000B4804F069FDFFF705FF20B901200BF05DF904F0DDFB00200BF058F90BF0A0F8FFF712FF002008BDF900000009010000CC81FF1F08B5884206D30C4B0C4A4FF414
:4005800083710C480DF082FC0A78037862F3000303704A88438813449BB24380027812F0010F01D11844838008BD00BFD8210200A0210200E421020008B5030C34D1C0F322
:4005C000CF139BB11A0A03D11B029BB2092200E00122190B02D104321B019BB2990B02D102329B009BB2A2EBD33300E01023D3F1100202D1C3F1140301E0C3F11303D84037
:4006000000F0070000EBC200002A05DA074B084A992108480DF03AFC092A06DD064B044A9A2104480DF032FC502008BD0C220200AC210200E421020018220200F8B50446D7
:40064000037843F0020303704088FFF7B5FF0138C0F3C80200F007064FF4004141FA02F70B4B1D883D431D80314103EB42029588294391800022E26003EB8003DB69A36005
:4006800003B1DC60024B03EB8000C461F8BD00BFECF9FF1F10B50446C36823BB4088FFF78BFF0138A268134B03EB8003DA61E2B9C0F3C80100F007004FF4004343FA00F085
:4006C0000C4A02EB4102938823EA00039BB293805BB94FF4004343FA01F1064A138823EA0103138001E082689A60A3680BB1E268DA6010BDECF9FF1F08B531B90E4B0F4A58
:400700004FF48E710E480DF0C1FBB1F5803F06D30C4B0A4A40F21D1109480DF0B7FB0A4BC3F86001037843F003030370418000238380FFF783FF08BD64220200B821020000
:40074000E421020070220200ECF9FF1F70B51030434203F00303C5180F2D06D87D4B7E4A4FF4A2717D480DF091FB2846FFF724FFC0F3C80100F00706794B03EB8003DC6953
:40078000002C40F09580764B03EB41039A884FF4004333415E1E164016D09EB1330A03D13602B6B2092300E00123320B02D104333601B6B2B20B02D10233B600B6B2A3EB7A
:4007C000D63643E0102641E04FF4004343FA01F10139634B1B8819408BB283B39BB11A0A03D119028BB2092100E001211A0B02D104311B019BB29A0B02D102319B009BB276
:40080000A1EBD33100E01021554B03EB41039B889BB11A0A03D11E02B3B2092600E001261A0B02D104361B019BB29A0B02D102369B009BB2A6EBD33608E0102606E01C2214
:4008400048490120FFF776FD002070BD002906DA454B414A4FF4B07140480DF017FB092906DD424B3C4A40F261113C480DF00EFB002E06DA3E4B384A4FF4B17137480DF0A1
:4008800005FB072E06DD3B4B334A40F2631133480DF0FCFA06EBC100314B03EB8003DC6934B9354B2C4A40F267112C480DF0EEFA63889D4206D9314B274A40F2691127488E
:4008C0000DF0E4FA23786FF341032370A268244B03EB8000C261B2B94FF4004343FA06F61F4A02EB4102938823EA0606B6B296805EB94FF4004343FA01F1194A138823EAF3
:400900000101118001E00023D360638805F12002934216D36019E618AAB29B1A438082802178635D61F300036355628023786FF300032370635D13F0010F03D1331AB380DB
:4009400000E0002008B1FFF779FE0023637004F1080070BD94220200C8210200E4210200ECF9FF1FC02202000C22020018220200E022020038220200EC220200FC220200A4
:4009800070B50546A0F1080430F8063CE61810F8082C12F0010F0AD1E35C13F0020F06D03046FFF777FE31462046FFF7E3FD35F8043C5B42E5180BD0E35C13F0020F07D0D0
:4009C0002846FFF767FE21462846FFF7D3FD2C462046FFF733FE70BD2DE9F04105460F46A0F1080601F11004634203F003031C4430F8063C9C4216D906EB030810F8082C6E
:400A000012F0010F0FD1F25C12F0020F0BD0B8F8022013449C4206D84046FFF73BFE41463046FFF7A7FD35F8062C944250D03AD204F120039A421BD33319B018A1B2521A41
:400A40005A80998015F8087C325D67F30002325525F8061C15F8082C6FF3000205F8082C325D12F0010F05D1C21A82801C4602E0002400E01C4674B36388E618227812F0C0
:400A8000010F0AD1E35C13F0020F06D03046FFF701FE31462046FFF76DFD2046FFF7CEFD2846BDE8F0813846FFF750FE0446A8B135F8062C083A29460DF05FFA15F8073CB4
:400AC00004F8073C2846FFF75BFF2046BDE8F0812846BDE8F0812846BDE8F0810020BDE8F08100BF10B504460846FFF72FFE20B12CB1227900F8072C10BD002010BD10BD05
:400B000008B508461146FFF767FF08BD70B50F4BD3F8604106790125002011E0237813F0010F00D0002513F0020F07D163789E4204D108B1FFF724FF04F1080063881C4458
:400B4000002DEBD108B1FFF71BFF70BDECF9FF1F00F8071C704700BF2DE9F041884601F110078B689E68DD88002406E0394606EB041004F0AFFF10B10134AC42F6DBAC42B3
:400B800009DA404605F03CF9042388F80030C8F80840BDE8F081404605F032F9012388F80030BDE8F08100BF38B50C468B68DD88084605F025F904232370A56038BD00BFF3
:400BC00010B50C468B68DB882BB1084605F018F90223237010BD084605F012F90323237010BD00BFF8B504460E4617460023036043608360C360162303700C213046FFF724
:400C000071FF90B1054639013046FFF76BFF18B92846FFF7B5FE08E001222A801622AA70AF800022EA80A860A5602046F8BD00BF70B584B00E468D68EA8801466846FFF718
:400C4000D1FF029CD4B1EA881201A968A0680DF094F9ED88E580A06800EB051504E000F1100404F0CFFF2046A842F8D3304605F0C7F804AB13E90F0086E80F0004B070BD6A
:400C8000F0B585B091F91030162B05D00A221F490120FFF74FFB36E00E468D688F69EA88FB881A4401466846FFF79CFF029C54B3EA881201A968A0680DF05FF9A368E88842
:400CC000FA881201B96803EB00100DF056F9ED88FB881D44ADB2E580A06800EB051504E000F1100404F08EFF2046A842F8D306F1100005F085F8304605F082F804AB13E93C
:400D00000F0086E80F0005B0F0BD00BF1823020070B58668B068F58800EB051504E000F1100405F039F82046A842F8D3B068FFF727FE3046FFF724FE70BD00BF38B584686C
:400D400000212046FFF704FFA068E58800EB051504E000F1100404F077FF2046A842F8D338BD00BF38B50D4684680901A068FFF733FE18B1A060A580002038BD012038BDD9
:400D80002DE9F04188B0904687680E1E02DAFB88F61831D4BB889E4203DB711CFFF7E2FF60BBB7F806E0764519DAB86800EB061004F0F2FF17E0BD6805EB0E1500220092A5
:400DC00001920292039201228DF8002004AC9DE80F0084E80F0085E80F000EF1010E7645E9DC731CFB80BB6803EB061698E80F0086E80F00002002E0052000E0012008B083
:400E0000BDE8F08110B5022A0ED10C4691F91030042B09D101F1200289692046FFF7B0FF002384F8203010BD232202490120FFF781FA10BD2423020070B58CB00C467AB9BC
:400E4000014608A8FFF7CEFE0A9B002B63D0204604F0D6FF0CAB13E90F0084E80F005AE01346012A2AD191F91020042A26D18A69002A23DB01466846FFF7B4FE029B002B32
:400E800049D008AB0022089209920A920B9201228DF8202004AD0FCB85E80F00A169914204DD2A4601396846FFF76AFF204604F0A7FF9DE80F0084E80F002CE0022B25D134
:400EC00094F91030042B21D1A269002A1EDB014608A8FFF787FE0A9BEBB100250AE004F12006304604F08EFE3246294608A8FFF747FF0135A3699D42F1DB204604F080FF6A
:400F00000CAB13E90F0084E80F0004E00E2203490120FFF70FFA0CB070BD00BF4823020010B485B004468B68002A01DAD9880A44002A02DBD9888A420CDB00220092019293
:400F40000292039201228DF800209DE80F0084E80F0005E09B6803EB02120FCA84E80F00204605B010BC70472DE9F0438FB007468846520002F4FF7242F00C520C924FF0CC
:400F8000A0430D930026ADF81460ADF81660ADF818600223ADF81A30ADF81C600CAB089309960A960B968B68B3F80690314604F09BFF07F11803C3EB08031033D7F858263B
:400FC0001344C7F8583618E008F12004204604F017FF324641466846FFF7A2FF9DE80F0084E80F00204604F00DFE00233B8205ABFB60384605F06AF801364E45E4DB384649
:4010000004F08EFF0FB0BDE8F08300BF30B585B00D464FF0FF326846FFF782FF684604F0F1FD284604F0ECFE9DE80F0085E80F0005B030BD30B585B00D4600226846FFF7D6
:401040006FFF684604F0DEFD284604F0D9FE9DE80F0085E80F0005B030BD00BF70B50E468568EB88A9888B4203D30631FFF77AFE58B9AB68EC88621CEA8003EB041496E885
:401080000F0084E80F00002070BD012070BD00BF10B50C4610312046FFF7E0FF0023237410BD00BF70B588B00C46012A13D191F91030042B0FD104AD8A692846FFF730FFA5
:4010C000284604F09FFD204604F09AFE95E80F0084E80F0044E0022A3DD194F91030042B39D194F92030042B35D1A368DE88A369002B00DA3344002B27DBF61AA36A9E4260
:40110000A8BF1E46002E20DB324601466846FFF769FD029B23B300250DE0A2692A44214604A8FFF7FDFE04A804F06CFD04A96846FFF794FF0135B542EFDB204604F060FE54
:401140009DE80F0084E80F000AE0204604F058FE0123237004E0232202490120FFF7EAF808B070BD2423020010B485B004468968CB8863B90022009201920292039201223E
:401180008DF800209DE80F0084E80F0008E08A68013B9BB2CB8002EB03130FCB84E80F00204605B010BC704730B585B05AB90C466846FFF7D9FF204604F022FE9DE80F00CE
:4011C00084E80F0004E0242202490120FFF7B2F805B030BD58230200F0B589B004468F68FD8865B90022009201920292039201228DF800209DE80F0084E80F0013E0D7F854
:4012000008E004AE9EE80F0086E80F006A1E92B2FA8012010EF1100170460CF0B9FE96E80F0084E80F00204609B0F0BD30B585B05AB90C466846FFF7CFFF204604F0E0FD34
:401240009DE80F0084E80F0004E0262202490120FFF770F805B030BD802302002DE9F04188B01546D0F808800F1E04DAB8F806301F4401374DD4B8F804108F4201DB791C45
:4012800006E0B8F80630994201D8013100E0002119B1FFF767FD00283DD1B8F8062097420ADAD8F80830781CD21B120103EB071103EB00100CF06CFED8F8084004EB071466
:4012C00095E80F0084E80F00B8F806600136B6B2A8F80660B74220DB013E13E0D8F8085005EB06150022009201920292039201228DF8002004AC9DE80F0084E80F0085E86F
:401300000F000136B742E9DC0137A8F80670002004E0052002E0012000E0002008B0BDE8F08100BF08B50A460021FFF797FF08BD10B50C4610312046FFF7F4FF00232374C2
:4013400010BD00BF2DE9F04188B004468F68161E01DAFB881E44002E02DBFD88AE420CDB0022009201920292039201228DF800209DE80F0084E80F001BE0D7F808C00CEBF6
:40138000061E9EE80F000DF1200808E90F00013DADB2FD80AE4207DA711CAA1B12010CEB011170460CF0F4FD08AB13E90F0084E80F00204608B0BDE8F08100BF30B585B00C
:4013C0000C468A696846FFF7BDFF204604F018FD9DE80F0084E80F0005B030BD70B58668B068F58800EB051504E000F1100404F0D3FC2046A842F8D30023F38070BD00BF32
:4014000008B50846FFF7EAFF08BD00BF70B506460D460024B268D3889C4203DAA968C888844203DBAA68D088181A70BD9368200189680144184404F04DFB08B90134E9E7A8
:4014400070BD00BFF8B50446444B1A68444902F083FB0146434D2860434B444A204602F0B5FB434B434A2968204602F0AFFB424E3346424A2968204602F0A8FB3346404A26
:401480002968204602F0A2FB3E4B3F4A2968204602F09CFB3D4F3B463D4A2968204602F095FB3C4B3C4A2968204602F08FFB3B4B3B4A2968204602F089FB3A4B3A4A296875
:4014C000204602F083FB394E3346394A2968204602F07CFB3346374A2968204602F076FB3346354A2968204602F070FB334B344A2968204602F06AFB324B334A2968204658
:4015000002F064FB314B324A2968204602F05EFB3B46304A2968204602F058FB2E4B2F4A2968204602F052FB2D4B2E4A2968204602F04CFB2C4B2D4A2968204602F046FB89
:401540002B4B2C4A2968204602F040FB2A4B2B4A2968204602F03AFBF8BD00BF18100020A823020010100020390E000018210200810C0000B0230200A5100000B423020018
:40158000B8230200050E0000BC23020091100000C023020001140000C4230200BD130000CC230200C10B0000D8230200A90B0000E0230200E8230200F0230200590B00000D
:4015C000F823020035100000002402000D1000000824020010240200A9110000182402002D1200001C2402003113000024240200310C00002C240200690F0000302402007E
:4016000070B58AB00E468B68DA885208014606A8FFF7E8FAB268009293680193D58803EB0515029503AB9DE8070083E807000BE000F12003049300F11004214606A8FFF7F2
:401640000DFD204604F0DEFA0498A842F0D3304604F0D6FB0AAB13E90F0086E80F000AB070BD00BF38B50C468B68DD886D08084604F0C6FB04232370A56038BD70B58AB0A5
:401680000E468B68DA885208014606A8FFF7AAFAB268009293680193D58803EB0515029503AB9DE8070083E8070009E004F120030493214606A8FFF7D1FC204604F0A2FA4F
:4016C000049CAC42F2D3304604F09AFB0AAB13E90F0086E80F000AB070BD00BF70B586B00D468A68009293680193D68803EB061602969DE8070006AB03E907000DE004F1E2
:401700002003049305F1100104F1100004F0E2F918B9204604F076FA03E0049CB442EED300243CB1284604F06BFB94E80F0085E80F0004E0284604F063FB01232B7006B046
:4017400070BD00BF30B587B00D468A68009293680193D48803EB041402949DE8070006AB03E9070008E000F12003049305F11001103004F0AFF920B10498A042F3D3002325
:4017800000E001232BB1284604F03AFB03232B7004E0284604F034FB02232B7007B030BD10B50C468B68DB885B0805D0084604F027FB0223237010BD084604F021FB032306
:4017C000237010BDF8B504460F4616460023036043608360C360192303700C213846FFF781F998B1054671013846FFF77BF918B92846FFF7C5F809E001222A801922AA70FD
:401800007600AE800022EA80A860A5602046F8BD30B585B00C46002201466846FFF7D2FF204604F0EDFA9DE80F0084E80F0005B030BD00BF70B50E4683689C68DD8804EB99
:40184000051505E03146204604F044F920B12034AC42F7D3002070BD204670BD10B50C4610312046FFF7E6FF28B1204604F0C8FA0323237010BD204604F0C2FA02232370BC
:4018800010BD00BFF8B507460D461646FFF7D2FF58B929463846FFF7E1FB0346A8B931463846FFF7DBFB03460FE0044604F074FA95E80F0084E80F001034204604F06CFA02
:4018C00096E80F0084E80F0000231846F8BD00BFF0B587B00F468A69009293680193D68803EB061602969DE8070006AB03E907000FE004F12003049304F110052A462146F7
:401900003846FFF7BFFF204604F07CF9284604F079F9049CB442ECD307B0F0BD022A0CD110B50C4601F1200210312046FFF7AAFF0023237484F8203010BD704710B584B09C
:40194000044608461146FFF775FF20B110300FC884E80F000BE00022009201920292039201228DF800209DE80F0084E80F00204604B010BD012A13D130B585B00C4601F125
:4019800010026846FFF7DAFF684604F03BF9204604F036FA9DE80F0084E80F0005B030BD704700BFF0B589B005460F4611463846FFF740FF60B90022009201920292039200
:4019C00001228DF800209DE80F0085E80F001AE0064604F0E1F904AC06F110030FCB84E80F00BA68D388023B9BB2D380926802EB0312921B06F1200130460CF0C9FA94E820
:401A00000F0085E80F00284609B0F0BD30B585B00C4601F110026846FFF7C4FF204604F0EFF99DE80F0084E80F0005B030BD00BF08B5FFF7D3FC08BD08B50846FFF7F8FF7F
:401A400008BD00BF70B5064614469368DA885208FFF7B8FEB568A5B1A468E2881201A168A8680CF08AFAE388EB80A068E58800EB051504E000F1100404F0C4F82046A842E6
:401A8000F8D3304670BD00BFF0B58BB00F460A46014606A8FFF7D6FFBA69009293680193D68803EB0616029603AB9DE8070083E807000FE004F12003049304F110052A46AC
:401AC000214606A8FFF7DEFE204604F09BF8284604F098F8049CB442ECD3384604F090F90AAB13E90F0087E80F000BB0F0BD00BF30B585B00C460A4601466846FFF7A2FF23
:401B0000204604F07DF99DE80F0084E80F0005B030BD00BF70B504463A4B1A683A4902F01BF80146394D2860394B3A4A204602F04DF8394B394A2968204602F047F8384BBB
:401B4000384A2968204602F041F8374B374A2968204602F03BF8364B364A2968204602F035F8354B354A2968204602F02FF8344B344A2968204602F029F8334B334A2968E9
:401B8000204602F023F8324B324A2968204602F01DF8314B314A2968204602F017F8304B304A2968204602F011F82F4E33462F4A2968204602F00AF833462D4A29682046A4
:401BC00002F004F833462B4A2968204601F0FEFF294B2A4A2968204601F0F8FF284B294A2968204601F0F2FF274B284A2968204601F0ECFF264B274A2968204601F0E6FF38
:401C000070BD00BF181000203824020004100020111800001821020075190000B42302001D190000BC230200391A0000C4230200F11A00002C2402000D1A000040240200D6
:401C4000A1170000D82302005D180000482402004517000054240200DD160000602402007D1600006424020065160000E0230200E8230200F0230200891A00006C24020089
:401C8000D1180000742402002D3F00007C240200011600008424020010B58C6807F06AFE00232373637310BD70B50C468E6807F045FE05463073204604F0A2F8042323701B
:401CC000A56070BD2DE9F0470C46D1F80890012A5FDD91F91030042B5BD18D6991F92030012B03D0042B54D18E6A01E04FF0FF36022A0CDD94F93030172B04D1A36BB3F8E4
:401D000004809F6806E0A2F10208002702E000274FF0FF3899F80D303BB907F02BFE0021E8B207F021FD054604E00021E8B207F05BFD054695BB012389F80D30002E04DB7A
:401D4000F0B207F0A3FD054640BBB8F1000F2ADB002614E03FB107F1010A387807F096FD0546574609E0F31C1B01E218E356042B14D1107A07F08AFD05467DB90136B045E8
:401D8000E8DC07F067FD054640B9002389F80D3009E00A4802F06EFA002504E007F05AFD002389F80D3089F80C50204604F028F804232370A560BDE8F08700BF8C2402006F
:401DC0002DE9F04F8DB007460C4616468D6804AB0022049205920692079201228DF810200FCB0DF1300E0EE90F00B31E012B76D894F91030042B72D1D4F8189094F9203063
:401E0000012B04D0042B6AD1D4F8288001E04FF0FF38032E0DD194F93030042B5FD1D4F838B00BF101013846FEF75CFE824620B965E04FF0FF3B4FF0000A6B7B4BB907F00A
:401E400099FD4FEAD8715FFA89F007F08DFC064606E04FEAD8715FFA89F007F0C5FC0646002E41D101236B73B8F1000F0CDB5FFA88F007F00BFD0646B0BB01215FFA89F012
:401E800007F0B2FC064678BBBBF1000F38DB0BF1FF38564608E006F10109012007F022FD307008F1FF384E46B8F1000FF3DC002007F018FD30700023737007F0CBFC06467A
:401EC00090B95B4652463946684600F0D7FD9DE80F000CAF07E90F0000236B7310E00E4802F0C8F900260BE007F0B4FC00236B73BAF1000F04D05046FEF742FD00E0002610
:401F00002E73204603F07CFF0CAB13E90F0084E80F000DB0BDE8F08FAC24020030B585B00C4602238A680146684603F005FF9DE80F0084E80F0000231373537305B030BDAD
:401F400038B5044607F0C8F9124B1A681249204601F002FE0546114B114A0146204601F035FE104B104A2946204601F02FFE0F4B0F4A2946204601F029FE0E4B0E4A2946A6
:401F8000204601F023FE0D4B0D4A2946204601F01DFE38BD18100020C82402001D1F000018210200C11D000030210200C51C00001C210200A91C0000CC240200991C0000BA
:401FC000D4240200202909DC002901DB8840704711F1200F04DB4942084170470020704700207047F0B591B022B18A69931E222B23D800E00A220C46074605AE09960B96A9
:402000000DF123030A9300250C950D950E950F9564238DF83430896809A802F09FF80B9B1D7032463946684600F016FD204603F0E7FE9DE80F0084E80F0011B0F0BD00BF40
:40204000D0B50C4688680BF0C3FB06460F46204603F0D6FE05232370C4E90267D0BD00BF38B50C468D68084603F0CAFE04232370002DB8BF6D42A56038BD00BF38B50C46B3
:402080008D69084603F0BCFE042323706942A068FFF798FFA06038BD38B50C468D69084603F0AEFE042323702946A068FFF78AFFA06038BD38B50C468D68084603F0A0FE66
:4020C00004232370ED43A56038BD00BF38B50C468D69084603F094FE04232370A3686B40A36038BD38B50C468D69084603F088FE04232370A3682B43A36038BD38B50C4667
:402100008D69084603F07CFE04232370A3682B40A36038BD38B50C468D69084603F070FE04232370A26892FBF5F305FB1323A36038BD00BF38B591F91030042B14D1886900
:40214000002801DB012400E00024002303E08A6802FB04F401338342F9DB0D46084603F04FFE04232B70AC6038BD00BF38B50C468D68084603F044FE042323706D42A560F0
:4021800038BD00BF10B50C468B691F2B0ED8084603F036FE04232370A268A16901238B401A4214BF01230023A36010BD084603F027FE042323700023A36010BD38B50C4666
:4021C000D1E902010BF01AFE0546204603F018FE04232370A56038BD70B50C468E68CD68084603F00DFE05232370324605F10043C4E9022370BD00BF30B587B00C460023F8
:40220000ADF814308B688DF81430012305AA0146684600F07DFB204603F0F2FD9DE80F0084E80F0007B030BDF0B58BB005460E46520002F4FF7242F00C5208924FF0A0434A
:4022400009930024ADF80440ADF80640ADF808400223ADF80A30ADF80C4008AB04930594069407948F68214603F03EFE05F11803F31A1033D5F858261344C5F858360FE006
:4022800006F1200003F0BCFD042386F82030B46200232B8201ABEB60284603F017FF0134BC42EDDB284603F03BFE0BB0F0BD00BF70B58AB006460C46D1E90223CDE90023A1
:4022C000094A102106A80CF03DFC02AD06AA3146284600F0C1FB204603F092FD95E80F0084E80F000AB070BDE424020038B50446334B1A68334901F02FFC0146324D28608A
:40230000324B334A204601F061FC324B324A2968204601F05BFC314B314A2968204601F055FC304B304A2968204601F04FFC2F4B2F4A2968204601F049FC2E4B2E4A2968BD
:40234000204601F043FC2D4B2D4A2968204601F03DFC2C4B2C4A2968204601F037FC2B4B2B4A2968204601F031FC2A4B2A4A2968204601F02BFC294B294A2968204601F0E8
:4023800025FC284B284A2968204601F01FFC274B274A2968204601F019FC264B264A2968204601F013FC254B254A2968204601F00DFC244B244A2968204601F007FC38BDCF
:4023C00018100020E82402002810002085210000B42302006D210000F024020035210000F424020015210000F8240200FD200000FC240200E520000000250200CD200000F0
:4024000004250200B52000000825020099200000C02302007D2000000C25020061200000102502002D3F000014250200292200001C2502004120000024250200F92100004C
:402440002C250200E51F00003025020038B504460F4B1A680F4901F07FFB01460E4D28600E4B0F4A204601F0B1FB0E4B0E4A2968204601F0ABFB0D4B0D4A2968204601F023
:40248000A5FB0C4B0C4A2968204601F09FFB38BD181000203825020020100020D9210000F0240200BD210000142502002D3F000024250200B12200003025020030B585B03D
:4024C0000D468B6818330FCB8DE80F00284603F097FC9DE80F0085E80F0005B030BD00BF30B585B00D468B6808330FCB8DE80F00284603F085FC9DE80F0085E80F0005B0E8
:4025000030BD00BF10B58B6893F90820042A18D10C4691F91020042A13D1DA7842B11969A269914211DC1B6A9A4210DB002313E01969A26991420CDC1B6A9A420BDD0023A6
:402540000AE00C4801F096FE10BD002304E0012302E0002300E001232BB1204603F050FC0323237010BD204603F04AFC0223237010BD00BF40250200F0B58BB004460D46C9
:40258000520002F4FF7242F00C5208924FF0A04309930021ADF80410ADF80610ADF808100223ADF80A30ADF80C1008AB0493059106910791AE6803F097FC04F11803EB1AA3
:4025C0001033D4F858261344C4F8583696F90830042B18D196F91830042B14D1376AF37803B1013F36690BE0042385F82030AE620023238201ABE360204603F067FD0136AA
:40260000BE42F1DD02E0044801F034FE204603F087FC0BB0F0BD00BF40250200F8B50546084617461E4600232B606B60AB60EB6018232B702821FEF755FAA86088B104464D
:402640000123038017238370069BC37000F1080E97E80F008EE80F00183496E80F0084E80F002846F8BD00BF10B504468068083003F0C6FBA068183003F0C2FBA068FEF782
:402680007FF910BD10B5044600218068FEF760FAA068083003F0D8FAA068183003F0D4FA10BD00BF38B504460D46806889680831083003F00FFA60B9A068A9681831183039
:4026C00003F008FA30B9AB68DB78A268D078181A38BD38BD38BD00BF38B504460F4B1A680F4901F039FA01460E4D28600E4B0F4A204601F06BFA0E4B0E4A2968204601F0B4
:4027000065FA0D4B0D4A2968204601F05FFA0C4B0C4A2968204601F059FA38BD18100020502502002C1000200525000058250200E124000000240200BD240000082402006F
:40274000792500003024020038B50C468B689B681D78084603F054FB04232370A56038BD38B50C468B689D88084603F049FB04232370A56038BD00BF10B50C4691F9103027
:40278000172B0DD18B6889699A888888824209D1896898680BF0E2FBB0FA80F0400902E0002000E0002028B1204603F029FB0323237010BD204603F023FB0223237010BD3E
:4027C000D0B50C468B6898680BF07EFB06460F46204603F015FB05232370C4E90267D0BD30B585B00C468B689A680146684602F065FF204603F004FB9DE80F0084E80F0020
:4028000005B030BD38B522B18B699A1E222A01D938BD0A230C468A681946906803F02AFA0546204603F0ECFA04232370A56038BD2DE9F84F0C46022A0CD191F91030042BA1
:4028400008D191F92030172B04D18D6901F1200A012619E0032A10D194F91030042B0CD194F92030042B08D194F93030172B04D1A569A66A04F1300A06E00C22224901209F
:40288000FDF758FDBDE8F88FA3689F88DAF80820B2F80490002D00DA3D44C5EB0708464500DD4646002D03DBBD4201DC002E06DA0B2216490120FDF73DFDBDE8F88F07EB10
:4028C0000902921B01329968FEF71AF98346C0B105EB09007119C6EB08020132594458440BF056FBDAF808304A4699680BEB05000BF043FBA3684F44BE1B9E80A368C3F88A
:4029000008B0BDE8F88F00BF64250200742502002DE9F04104460F4690461E460023036043608360C360172303700C213846FEF7D9F8E8B10546711C3846FEF7D3F8074665
:4029400018B92846FEF71CF812E001232B801723AB70AE80A860B8F1000F02D10023037005E0324641460BF008FB0023BB55A5602046BDE8F08100BF30B585B00C46012AB6
:4029800030D191F91030042B2CD189688A88A369002B04DB9A4207DD8A68D55C09E0D31805D48A68D55C04E04FF0FF3501E04FF0FF35002D46DB0123002201466846FFF72A
:4029C000A7FF029B002B3DD09A6815709B6800225A70204603F014FA04AB13E90F0084E80F0034E0022A27D194F91030042B23D194F92030042B1FD1A568AB88A269002AB1
:402A000000DA1A44002A1DDB9B1AA16A8B42A8BF0B46002B16DBA9680A4401466846FFF777FF029B73B1204603F0EAF904AB13E90F0084E80F000AE0242206490120FDF755
:402A400079FC04E0204603F0DBF90123237005B030BD00BF8025020070B504460E46154622B110460CF0B2F8034600E000232A4631462046FFF74CFF204670BD70B5044648
:402A8000084615461E46002323606360A360E360172323700C21FEF725F830B1012202801722827086808560A060204670BD00BF2DE9F04794B091F91030172B03D0864822
:402AC00001F0D8FB05E182460F4691462021FEF709F80346002800F0FC80BA6992680D900F901F330E931092002311931293139302264FF0200801AC0DAD0FCD0FC495E802
:402B0000070084E807000DA801F038FA0246002800F0C7800028C0F2B6804E4505DD0E226E490120FDF706FCBBE09DF84430423B362B00F29880DFE803F06796967F967FAC
:402B40009696969696969696969696969696969673969696969696969696671C417F7F7F9641969696969696969696279641969673003301F918FB56042B74D189680DA891
:402B800001F072FA02466EE03301F918FB56172B07D18B68202299680DA801F097FA024661E0062B5FD1B1F9080002F0C5FD202201460DA801F08AFA024654E03301F91841
:402BC000FB56042B06D10A2289680DA801F0C6FA024648E0052B0AD1D1E902010BF00EF90A2201460DA801F0B9FA02463BE0172B39D18B6898680BF06EF90A2201460DA8C9
:402C000001F0ACFA02462EE03301F918FB56042B29D1022289680DA801F0A0FA024622E03301F918FB56042B1DD1102289680DA801F094FA024616E03301F918FB56052B3B
:402C400006D1D1E902230DA801F0ECFA02460AE0042B08D188680AF0BBFD02460B460DA801F0E0FA0246002A01DB013643E7129B202B00DD98440DAC01AD0FCD0FC495E82A
:402C8000070084E8070008F1200842460D995046FDF736FF0146E0B142460DA801F07AFB29E700220F9B1A700D990F9D6D1A6A1C5046FDF725FF08AC2B460D9A51462046D5
:402CC000FFF7DCFE384603F09BF894E80F0087E80F0014B0BDE8F087182302004823020010B5044683689868FDF74AFEA068FDF747FE10BD10B5044600218068FDF728FFF6
:402D0000A36800219868FDF723FF10BD38B505469468A3880022FFF7FBFDAB682BB1A2880132A16898680BF028F9284638BD00BF30B585B00C460A4601466846FFF7E6FFF6
:402D4000204603F05DF89DE80F0084E80F0005B030BD00BFF8B5074694689D68A288AB8813440022FFF7D4FDBE6866B1A288A168B0680BF002F9B068A388AA880132A96866
:402D800018440BF0FAF83846F8BD00BF30B585B091F91030172B05D01B220B490120FDF7C9FA0EE00C4601F110030A4601466846FFF7D0FF204603F023F89DE80F0084E8B1
:402DC0000F0005B030BD00BFA82502002DE9F04105460E4683689F8891F90020172A02D18A68948800E00124E11901319868FDF7F3FD8046D0B196F90030172B06D1B36881
:402E0000621C996838440BF0B8F806E0042B04D1B368C3557B1C0022C254AB683C449C80AB68C3F808800020BDE8F0810120BDE8F08100BF08B508461031FFF7C7FF08BD02
:402E40002DE9F0418368D3F8088008EB020589688F689B888E889B1B9C1A0BE03246394628460BF07BF818B9C8EB0500BDE8F081013C0135002CF1DA4FF0FF30BDE8F081FB
:402E800038B50C46012A0ED0022A1BD191F92030042B17D18A6A002A02DA8B689B881A44002A01DA0EE0002204F110012046FFF7C7FF051E06DB204602F0A2FF042323705F
:402EC000A56038BD204602F09BFF0123237038BD2DE9F04180460D4683689E689F887C1E344411F0010F05D0184930460BF076FE311801E03146002015F0020F0CD10DE0E3
:402F00002578124AD25C954205D0013300E00023062BF5D902E0013CA142F8D9641A651CAF4210D018B12A4630460BF031F800237355A11C3046FDF74FFDD8F808309D808F
:402F40000120BDE8F0810020BDE8F0815C25020030B589B00C4603212046FFF7B9FF88B9204602F04DFF0022009201920292039201228DF8002004AD9DE80F0085E80F00DB
:402F800084E80F0009B030BD30B585B00C460A4601466846FFF7BAFE03216846FFF798FF204602F02DFF9DE80F0084E80F0005B030BD00BF30B589B00C4602212046FFF74F
:402FC00087FF88B9204602F01BFF0022009201920292039201228DF8002004AD9DE80F0085E80F0084E80F0009B030BD30B585B00C460A4601466846FFF788FE0221684680
:40300000FFF766FF204602F0FBFE9DE80F0084E80F0005B030BD00BF30B589B00C4601212046FFF755FF88B9204602F0E9FE0022009201920292039201228DF8002004ADC9
:403040009DE80F0085E80F0084E80F0009B030BD30B585B00C460A4601466846FFF756FE01216846FFF734FF204602F0C9FE9DE80F0084E80F0005B030BD00BF10B48368ED
:403080009A6899884C1E1319145D0A2C00D1013B1C780D2C00D1013B9B1A0133994205D00021D15482689380012000E0002010BC704700BF30B589B00C460846FFF7DEFFF9
:4030C00088B9204602F09CFE0022009201920292039201228DF8002004AD9DE80F0085E80F0084E80F0009B030BD00BF30B585B00C460A4601466846FFF708FE6846FFF773
:40310000BDFF204602F07CFE9DE80F0084E80F0005B030BDF8B504464C4E32684C4900F01BFD01464B4D28604B4B4C4A204600F04DFD4B4B4B4A2968204600F047FD4A4F66
:403140003B464A4A2968204600F040FD3B46484A2968204600F03AFD464B474A2968204600F034FD454B464A2968204600F02EFD444B454A2968204600F028FD434B444A33
:403180002968204600F022FD424B434A2968204600F01CFD414B424A2968204600F016FD404B414A2968204600F010FD3F4B404A2968204600F00AFD3E4B3F4A29682046C8
:4031C00000F004FD3D4B3E4A2968204600F0FEFC3C4B3D4A2968204600F0F8FC3B4B3C4A2968204600F0F2FC3A4B3B4A2968204600F0ECFC394B3A4A2968204600F0E6FC79
:40320000384B394A2968204600F0E0FC374B384A2968204600F0DAFC364F3B46364A2968204600F0D3FC3B46344A2968204600F0CDFC334B334A2968204600F0C7FC324BF7
:40324000324A3168204600F0C1FCF8BD18100020C4250200081000208D2D0000B0230200792700005825020061270000E0230200E823020005280000142502002D3F0000EA
:4032800030250200352E0000C023020079290000B423020031280000BC230200ED300000CC250200B5300000D4250200312D00002C240200812E0000F823020049270000DE
:4032C000DC25020051300000E025020019300000E8250200ED2F0000F0250200B52F0000F8250200892F000000260200512F000008260200E12700001026020018260200A5
:40330000C127000024250200B12A00002026020008B5024802F07AFA08BD00BF480F002008B5024802F092FA08BD00BF480F002008B58B68D86802F0F5FA08BD08B58B6809
:40334000D86802F0E9FA08BD08B591F91030172B02D18B699A6800E0002222B18B681146D86802F035FB08BD2DE9F0418CB006460C468B68DD68284602F078FB68B904AB9F
:403380000022049205920692079201228DF810200FCB0CAD05E90F001FE0284602F052FB00F1010841463046FDF79CFB074642460146284602F018FB804602463946304665
:4033C000FDF79EFB43463A4631466846FFF756FB9DE80F000CAD05E90F00204602F010FD0CAB13E90F0084E80F000CB0BDE8F08138B50C468B68D86891F91030172B0CD1B2
:403400008B699A88996802F097FA0546204602F0F7FC04232370A56038BD084602F0F0FC0123237038BD00BF2DE9F0418CB007460C468B68DE688D69304602F003FB854293
:403440000DDD04AB0022049205920692079201228DF810200FCB0CAD05E90F0014E0691C3846FDF73FFB80462A460146304602F089FA2B46424639466846FFF7FFFA9DE8A4
:403480000F000CAD05E90F00204602F0B9FC0CAB13E90F0084E80F000CB0BDE8F08100BF30B58DB00D46144B1B68002B0FDD04AB0022049205920692079201228DF81020F7
:4034C00008AC0FCB84E80F0085E80F0012E001460423AA68684602F02FFC9DE80F0085E80F0005490B68581C08600449B42000FB0313D3600DB030BD50FBFF1F480F00206E
:4035000010B588B0264B0693264B0593264B0493264B0393264B0293264B0193264B0093264B20220121264802F0C6F9254806F00FFB254806F038FB244B1A6824490020E8
:4035400000F00AFB0446234B234A0146002000F03DFB224B224A2146002000F037FB214B214A2146002000F031FB204B204A2146002000F02BFB1F4B1F4A2146002000F0EA
:4035800025FB1E4B1E4A2146002000F01FFB1D4B1D4A2146002000F019FB08B010BD00BF4D9A00008D9A0000599A0000A19A0000699A0000AD9A0000119A0000F59900002C
:4035C000480F002011330000213300001810002028260200A1340000182102002934000030210200F13300001C210200693300003026020049330000382602003D330000C1
:4036000040260200313300005026020003230B70704700BF10B50C46084602F0F1FB0223237010BD70B594B006460C460CAB059307930DF14F0306931A4B089300230993CF
:403640000A930B9317E09DF82430732B02D0782B0CD010E0A3685B68B3F9000002F06CF82022014605A800F031FD04E01022A16805A800F073FD05A800F080FC0028E2DC01
:403680000022079B1A70204602F0BAFB0CAA31466846FFF7E1F99DE80F0084E80F0014B070BD00BF7426020070B594B006460C460CAB059307930DF14F030693104B0893DA
:4036C000002309930A930B9304E01022A16805A800F044FD05A800F051FC0028F5DC0022079B1A70204602F08BFB0CAA31466846FFF7B2F99DE80F0084E80F0014B070BD48
:403700008026020030B585B00D46054A01466846FFF7A2F99DE80F0085E80F0005B030BD9026020030B585B00D46054A01466846FFF792F99DE80F0085E80F0005B030BD51
:403740009826020070B504460D4602F0B7FB06460BF03CFA01462046FDF7C4F9A8B1044631460BF02BFA30460BF030FA013800232354204601F0CEFF05F1100201462846BF
:4037800002F046FB2046FDF7FBF870BD30B585B00C4602F093FB01F0BDFF02462146684602F044FB204602F02BFB9DE80F0084E80F0005B030BD00BF38B50C461031204661
:4037C00002F088F90546204602F01AFB04232370A56038BD10B50C461031204602F07AF928B1204602F00CFB0323237010BD204602F006FB0223237010BD00BF30B585B052
:403800000D4600231A4601466846FFF781F89DE80F0085E80F0005B030BD00BF38B504460D46114602F060FB00232382AB68DB68E360C4F8585638BD91F90030013B182BB6
:4038400034D8DFE803F013100D16191C223333333333333333333333331F24272A2D3000144B18687047144B18687047134B18687047134B18687047124B18687047124B49
:40388000186870478B6858687047886870470F4B186870470E4B186870470E4B186870470D4B186870470D4B186870470C4B1868704700BF001000200C1000201C100020EC
:4038C000281000202010002014100020FC0F002010100020081000202C100020041000201810002030B58BB0044690F900104B1E182B00F2B980DFE803F0BC0D141B21288C
:4039000036B7B7B7B7B7B7B7B7B7B7B7B745546E758BB00005225A490120FCF70BFD0020ACE0042257490120FCF704FD0020A5E08168554800F09EFC00209FE0D0E9022367
:40394000524800F097FC002098E0B0F9080001F0F3FE04460BF03AF9024621460120FCF7E9FC00208AE08368B3F9000001F0E4FE04460BF02BF9024621460120FCF7DAFCE9
:4039800000207BE001460020FFF756FFB0F9000001F0D2FEA26801463D4800F06BFC00206CE007223B490120FCF7C4FC002065E03DB10AA90A2301F8213D01221046FCF760
:4039C000B9FC2A46214602A8FDF7AAFA02A8FFF789FF013500E00025A368DB889D42E7DB00204BE083689C6820460BF0EFF8024621460120FCF79EFC2378002B3BD0204671
:403A00000BF0E4F80138235C0A2B36D0002035E0836802AD08330FCB85E80F002846FFF761FFA368DB780BB11B4D00E01B4D28460BF0CCF8024629460120FCF77BFCA36854
:403A400006AC18330FCB84E80F0002AD85E80F002846FFF747FF002010E0072210490120FCF768FC002009E00E4800F003FC002004E0002002E0002000E001200BB030BDF8
:403A80009026020098260200A8260200E424020074260200AC260200A0260200A4260200B4260200BC26020070B582B07AB914E006EB0410FFF716FF38B902A90A2301F8A0
:403AC000023D01221046FCF735FC013402E00E4615460124AC42EBDD07E002A90A2301F8013D01221046FCF725FC02B070BD00BF70B584B006460C46FFF79EFEB0F90000F6
:403B000001F01AFE024631466846FEF7A5FF204602F076F99DE80F0084E80F0004B070BD82B010B502A981E80C00BDF91840FFF783FE09E0836804E0B3F90420A24206D0E1
:403B40009B68002BF8D140680028F3D100E01846BDE8104002B0704770B588B01646084601F0D8FD0546014604A800F0EDFC9DF91030012B16D10C210020FCF7B3FF044615
:403B800070B1058046600023836000930193039307238DF8003002906946284600F070FC20460AE0072B01D1069806E0044B054A4FF4977104480AF069F908B070BD00BFFF
:403BC000CC26020060260200DC26020038B50C461D46114601F06CFFC37843F00103C370A3688360A060C56038BD00BF38B5044600221E49FFF7B0FF01461D4D28601D4B7E
:403C00001D4A2046FFF7E2FF1C4B1D4A29682046FFF7DCFF1B4B1C4A29682046FFF7D6FF1A4B1B4A29682046FFF7D0FF194B1A4A29682046FFF7CAFF184B194A29682046FB
:403C4000FFF7C4FF174B184A29682046FFF7BEFF164B174A29682046FFF7B8FF154B164A29682046FFF7B2FF38BD00BF0427020018100020A93A00003826020015360000A2
:403C80000C270200D537000010270200B937000014270200F13A000018270200F93E000018210200453D000020270200BD3C00002C27020025360000302502002DE9F0436B
:403CC00085B080460D461646012430E02301EA18EB56062B2AD1B2F9080001F02DFD8146154B0246A9684046FFF770FF48460AF06DFF811C4046FCF7F5FE0746C8B14946C7
:403D00000AF05CFF38460AF061FF0C4B1B883B523A464146684601F0D1FC094B3A46A9684046FFF753FF3846FCF72AFE0134B442CCDD05B0BDE8F0838D3700003C27020046
:403D400045370000F8B507460D46164601240FE02301EA18EB56062B09D1B2F9080001F0EBFC054B0246A9683846FFF72FFF0134B442EDDDF8BD00BF8D37000038B504465E
:403D8000094B1A680949FFF7E7FE0146084D2860084B094A2046FFF719FF084B084A29682046FFF713FF38BD18100020402702001C1000200D3600000C270200FD37000080
:403DC0003025020038B50446094B1A680949FFF7C3FE0146084D2860084B094A2046FFF7F5FE084B084A29682046FFF7EFFE38BD181000204C270200FC0F00201D3800008C
:403E000054270200A93600003025020038B50446094B1A680949FFF79FFE0146084D2860084B094A2046FFF7D1FE084B084A29682046FFF7CBFE38BD181000205C270200CB
:403E40000C1000200D3600000C270200053700003025020010B50446064B1A680649FFF77BFE0146054B1860054B064A2046FFF7ADFE10BD181000206827020000100020CF
:403E8000253700003025020030B585B004461546084601F03FFC029005F1080393E803008DE8030095E80C002046FFF739FE08B3054604F5CC61B4F85C3603EB83039A00F9
:403EC0008B18D4F858069860E0688850228A9A8000221A74D4F8301ED960B4F85C360133A4F85C362282EB68E360D4F858362033C4F8583605B030BDF0B585B006460C4629
:403F0000174600238A680146684601F015FF9DE80F0084E80F003B46224603493046FFF7B3FF05B0F0BD00BF74270200704700BF08B50020FFF75AFE0020FFF71FFF002000
:403F4000FFF740FF0020FFF761FF0020FFF782FF0020FEF7CBF9002001F016FC0020FEF775FA0020FFF7D6F80020FDF76BFA0020FEF7B2FB0020FDF7CDFD08BD30B40023B6
:403F80000361436183614FF0FF350BE04C1CC460252B04D14978252935D10134C460511C81601370826843689A4204D2C1680B781D46002BEAD1281C18BF0120404251E09C
:403FC000203B102B2CD8DFE803F00E2B2B2B2B2B2B2B2B2B2B092B132B2B1800437C43F0010343740DE0437C43F00403437408E0437C43F00203437403E0437C43F008033C
:4040000043740132C260C2681378002BD8D107E0436903EB83035900214441610132C260C2681378A3F13004092CF1D92E2B0FD10132C26007E0836903EB83035C0022441C
:4040400082610131C160C1680A78303A092AF2D9C3681A782AB15A1CC2601B780374012000E0012030BC704710B4437C13F0020F06D08368426893421CD05A1C8260197054
:40408000426907E083684468A34216D05C1C846020241C70013A002AF4DC437C13F0020F0ED18368426893420CD05A1C82601970002009E04FF0FF3006E04FF0FF3003E024
:4040C000002001E04FF0FF3010BC7047F8B5044616460D4601B9204D28460AF077FD0246A36913B1984200DD1A4663699A4200DB13466168A068091A8A4201DC002002E07B
:404100000A464FF0FF308B4202DD0B464FF0FF309B1A617C11F0020F05D010E0A3685F1CA7601E700B46591E002BF7DC0B4606E0A268571CA7602F7817700A460135511E2E
:40414000002AF5DC04E0A368591CA1601E7013465A1E002BF7DCF8BD8027020070B58AB00C46037C642B01D0692B0DD1002902DA4C422D260DE0417C11F0010F06D111F0A9
:40418000040F05D1002604E0002602E02B2600E02026417C11F0020F01D1416919B9417C6FF3C301417400218161582B01D1372500E057250AA9002301F8033DB4FBF2F325
:4041C00002FB13430139092B02DC3033DBB201E02B44DBB20B70B4FBF2F4002CEED1437C13F0080F0DD096B183685A1C82601E70826843689A4210D24369013B4361302259
:4042000008E036B101F8016C0139202202E0302200E02022FFF75AFF01E04FF0FF300AB070BD00BFD0B586B0044616461F46C16806AA002302F8013D11F8013D02F8013DBA
:40424000252BF9D16168A068091ACDE9006701310AF078FC01E00133A360A3681A78002AF9D1606883424FF0FF3018BF002006B0D0BD00BF0FB410B59EB020AB53F8042BBB
:404280001D9301AB169318930DF155031793199200231A931B931C9316A8FFF76FFE0446189B169A9A1A05D001A90120FCF742F8169B1893002C67D0002CEDDBECDD9DF816
:4042C0006830423B362B55D8DFE803F0365454485448545454545454545454545454545454543F545454545454545454361C2D484848542D54545454545454545424542DBB
:4043000054543F001D9B1A1D1D92196816A8FFF7ABFE2FE01D9B1A1D1D922022196816A8FFF7D4FE26E01D9B1A1D1D920A22196816A8FFF713FF1DE01D9B1A1D1D9202224E
:40434000196816A8FFF70AFF14E01D9B1A1D1D921022196816A8FFF701FF0BE01D9B073323F0070303F108021D92D3E9002316A8FFF758FF169B189AD21A01A90120FBF769
:40438000D9FF169B189387E71EB0BDE8104004B0704700BF10B4836804681B1B0160013A0A4442600B44836010BC704710B4002310E003EB4304E2000C4C2244B2F9022063
:4043C000824206D103EB4304E200084CA25C8A4208D00133054AD2F8B0249342E9DB4FF0FF3000E0184610BC704700BF58FBFF1F0022024BC3F8B024704700BF58FBFF1F17
:4044000082B070B5054604A981E80C000121FFF7CDFFB0F1FF3F0DD1154BD3F8B044621CC3F8B024312C0EDD124B134A3B21134809F02CFD044600EB4003D80008300C4B31
:40444000184401F0DDFC0A4A61000819C300D0180126D65445800446083404AB0FCB84E80F0004A801F0CEFBBDE8704002B0704758FBFF1FB027020088270200D0270200DD
:40448000F8B506460D460221FFF790FFB0F1FF3F0DD1144BD3F8B044621CC3F8B024312C0EDD114B114A4F21114809F0EFFC044600EB4003D80008300A4B184401F0A0FCAE
:4044C000084A61000819C300D0180227D75446800446083495E80F0084E80F00284601F091FBF8BD58FBFF1FB02702009C270200D0270200F0B585B0044608460121FFF764
:4045000055FF051E0FDB0F4E6F007B19D8000830304401F077FB3D44EB00334408330FCB84E80F000BE00022009201920292039201228DF800209DE80F0084E80F002046C8
:4045400005B0F0BD58FBFF1FF0B585B0044608460221FFF72BFF051E0FDB0F4E6F007B19D8000830304401F04DFB3D44EB00334408330FCB84E80F000BE0002200920192E4
:404580000292039201228DF800209DE80F0084E80F00204605B0F0BD58FBFF1F10B5002408E004EB4403D8000830054B184401F04BFB0134024BD3F8B0349C42F1DB10BD20
:4045C00058FBFF1F4288013A14D4F0B400260DE0B31803EBD3735B10476803EB4305EC003C5F8C4201DA5E1C00E01A469642EFDB304602E04FF0FF307047F0BC704700BF2C
:4046000070B506460D460821FCF76CFA90B1044605EB4503D9003046FCF764FA606020B92046FCF7ADF9002070BD258000236380204670BD002070BD38B505460C4601EBEB
:404640004103D9004068FCF7C7F918B168602C80002038BD012038BD2DE9F041054688461646FFF7AFFF041E18DB6B6804EB4402D700D819DB5F98450CD1083001F08CFB71
:404680006B681F44083796E80F0087E80F000020BDE8F081984502DD013400E000246B8829888B4204D305312846FFF7C5FF28BB6B889C420FDA1B1B03EB4303DA006F68F1
:4046C000631C03EB4303D80004EB4403D9003944384409F05DFC6A6804EB4404E30022F803806C681C44083496E80F0084E80F006B8801336B800020BDE8F0810120BDE8C6
:40470000F08100BF38B505460C46FFF75BFF002809DB6A6800EB4000C300D018D35E9C4203D1083038BD002038BD002038BD00BF70B506464468438803EB4303DD00254460
:4047400004E004F1080001F027FB1834AC42F8D30023738070BD00BF10B50446FFF7E8FF6068FCF70DF92046FCF70AF910BD00BF10B40C6863681A0202F47F0242EA036084
:404780001A0A02F47F42024342EA136323440B60002010BC704700BF70B506460D460C6808221549204609F0D9FB28B1134BC6F8343E4FF0FF331CE00422114904F10E00B9
:4047C00009F0CCFB28B10F4BC6F8343E4FF0FF330FE004220C4904F1120009F0BFFB034628B1064BC6F8343E4FF0FF3301E016342C60184670BD00BF0028020002000101BE
:404800000C28020004000101142802002DE9F04F83B000AF834679600C68002001F058FA18B96C4BCBF8343ED0E08246A288130A43EA02230380E288130A43EA0223438061
:4048400021890B0A43EA012189B28180D4F80A00020202F47F0242EA0062030A03F47F43134343EA1063AAF806300E34DBF808502D1B05F00305254451B189000020FCF7C2
:4048800031F9CAF8180018B9524BCBF8343E9DE0CAF80C50BAF8063005EB830455F823100B0203F47F0343EA01620B0A03F47F43134343EA116189B2AAF80810043431B1EF
:4048C00089000020FCF70EF9CAF8100008B100265CE0404BCBF8343E002077E094F80090B4F801502B0A43EA0525ADB203340021084601F0D3F8804618B9364BCBF8343E3E
:4049000064E0B9F1010F0AD0B9F1000F03D0B9F1020F1DD034E017230370846030E0E94605F1080323F00703ADEB030D2A462146684609F022FB00230DF80530042388F822
:404940000030684609F0C7FAC8F80800CD4617E0E94605F1080323F00703ADEB030D2A462146684609F009FB00230DF80530052388F80030684609F0A7FAC8E90201CD4612
:40498000DAF8103043F826802C440136BAF808309E42A3DBCAF8144054F8041B0B0203F47F0343EA01620B0A03F47F43134343EA116206E021880B0A43EA01239BB2033342
:4049C0001C44013AF6D57B681C6050460C37BD46BDE8F08F030002012DE9F04107468846FFF714FF80B10546002407E0AE6941463846FFF7F1FF46F824000134AB889C4250
:404A0000F4DB2846BDE8F0810020BDE8F08100BF2DE9F04182B006460D460B681C1D01945F68390201F47F0141EA07613A0A02F47F4241EA020343EA176704340194042202
:404A40000F49204609F08AFA28B10E4BC6F8343E4FF0FF380FE08046043402A941F8044D3046FFF7B9FF306018B12B683B442B6001E04FF0FF38404602B0BDE8F08100BF83
:404A8000142802000200020170B582B0064602AB43F8041D81601946FFF77EFE05461EE0019C04221049204609F058FA28B901A93046FFF7ADFF054611E004220B49204680
:404AC00009F04CFA28B901A93046FFF751FE054605E004220649204609F040FA08B1002DDED0284602B070BD1C28020024280200F8270200034BC3F88430002283F8812062
:404B0000704700BF0C000020014B93F8810070470C000020024BD3F88400C01A704700BF0C000020004870470C00002010B5044605F038FE0028FBD0204605F0BDFD10BD46
:404B400038B505460C460DE005F02CFE0028FBD02146402CA8BF402189B2284605F084FD4035403C002CEFDC3CB905F01BFE0028FBD00021084605F077FD38BD38B505F065
:404B8000FFFB30B105F0F6FB88B305F021FD012038BD05F0EFFB60B305F0F8FD60B305F0DBFD0546FFF7B6FFC0F18004A54200DC2C46A1B2114BD3F8840005F0FFFD0DE0D8
:404BC0000E4AD2F88430591CC2F884101B780A2B03D10122094B83F88120013C002CEFD1064BD3F8843000221A70022038BD012038BD4FF0FF3038BD002038BD0C00002077
:404C00002DE9F047804689460E4624E0FFF782FF024620B9FFF7B2FF00281CDA20E0864201DD054600E03546541BAA462A460E49404609F0A2F9002C09DD0B4F22467919EB
:404C4000384609F0A5F93A19C7F8842001E0FFF751FFD044761B002ED8DC4846BDE8F0870020BDE8F08700BF0C000020244BD3F88820032A3FDC30B5C3B00446214B1B682F
:404C8000034421498B4238D81AB900230093019304E01E496B460868496803C32DF8124008221A49684606F0FDFCC0B1FEE7FF2C01D8214601E04FF4807102A8FFF7A0FFB0
:404CC000054602460F4B196802A806F0EBFC00B1FEE7641BA4B20B4B1A6815441D60002CE5D1FFF707FF064AD2F888300133C2F88830002002E001207047022043B030BD74
:404D00000C000020CC80FF1F102102001021010010B5FFF733FFFFF7F7FE0028F9D0FFF701FF36490AF094FD044618B93448FFF7FDFE5FE0334909F037FF48B93248FFF7CC
:404D4000F5FE3248FFF7F2FE3148FFF7EFFE51E03049204609F028FF18B92F48FFF7E6FE48E02E49204609F01FFF38B92648FFF7DDFE642003F0A0FA03F096FA284920467B
:404D800009F012FF18B92748FFF7D0FE10BD2649204609F009FF50BB18490AF059FD10B309F095F80446B0F5803F03D91F48FFF7BDFE1FE0FFF79EFE1D48FFF7B7FEA0B2A8
:404DC000FFF754FF012806D0022808D058B91048FFF7ACFE0EE01748FFF7A8FE0AE01648FFF7A4FE06E01548FFF7A0FE02E01448FFF79CFEFFF77EFE8BE700BF2C280200F9
:404E000034280200442802004C280200542802009028020098280200A0280200CC280200D4280200DC2802001C210200F42802000C29020024290200482902007029020081
:404E40007829020008B5C379082B0AD8DFE803F00F110911050909090700114A0AE0114A08E0114B114A8221114809F00FF8114A00E0114A13688BB198420DD10368136048
:404E80000023036008BD1A68904204D102681A600023036008BD1346002BF4D108BD00BFA0000020A4000020D429020090290200EC290200980000209C00002010B5C379B8
:404EC000082B0AD8DFE803F00F110911050909090700174B0AE0174B08E0174B174A5221174808F0D3FF174B00E0174B1A681AB1447951798C420BD202601860036898424B
:404F000015D1124B0D4A5B210D4808F0BFFF1A46136813B159798C42F9D203601060824205D10B4B054A6621054808F0AFFF10BDA0000020A4000020D4290200A02902009F
:404F4000EC290200980000209C000020142A02002C2A020010B50C46084600F051FF04232370024B1B69A36010BD00BF9800002030B585B00D461038002300930193039302
:404F8000FF238DF800300290084600F039FF9DE80F0085E80F0005B030BD00BF70B51D4B1A6901321A615B685BB1DA79032A08D19A7932B1013AD2B29A7112B9012283F892
:404FC000482E144B9C68002113E02568237A7BB9E268104B1B699A420AD12046FFF732FF0126E6710A23A3712046FFF767FF31462C46002CE9D159B1064B5B6806E0DA7952
:40500000032A02D1012283F8482E1B68002BF6D170BD00BF9800002038B5FBF76DFB00F087FA2A4C2A4B2B4A21680020FEF7CEFD294B2A4A21680020FEF7C8FD284B294A91
:4050400021680020FEF7C2FD274B284A21680020FEF7BCFD264B274A21680020FEF7B6FD254B264A21680020FEF7B0FD244B254A21680020FEF7AAFD226823490020FEF70C
:405080006BFD0546214B224A01460020FEF79EFD204B214A29460020FEF798FD1F4B204A29460020FEF792FD1E4B1F4A29460020FEF78CFD22681D490020FEF74DFD1C4B03
:4050C0001C4A01460020FEF781FD38BD18100020F15200003C2A02006D520000442A020085520000502A0200A55200005C2A0200D15200006C2A0200795300007C2A020058
:40510000714F0000882A0200902A0200AD5300001821020019540000A42A0200BD540000982A020005550000A02A0200AC2A0200554F0000B02A020010B504464FF465625B
:40514000002108F040FF8023237163710123E37110BD00BF70B506460C4639B94FF46560FBF7F4FA044648B3FFF7E6FF0A23A3712379637104F11005284600F0EBFE20B930
:405180000F48FFF777F8002070BD31462846FFF77BFC38B10B48FFF76DF8284600F02EFF002070BDE37913B1284600F061FF72B62046FFF783FE62B6204670BD002070BD4A
:4051C000B82A0200D42A020038B51A4B5C682CB94FF40461002003F08FFEF6E70323E371002384F8483E04F11005284600F06EFF00280DDA72B62046FFF724FE0023E3710B
:405200002046FFF75BFE62B6284600F057FFDCE772B6E379032B0BD10123E371A3793BB92046FFF70FFE0A23A3712046FFF746FE62B6CAE79800002038B504460D4672B697
:40524000FFF700FE0023A3710422E2712372064B1B691D44E5602046FFF730FE62B6012384F8483E38BD00BF9800002008B589691038FFF7E1FF08BD00238371012380F801
:40528000483E704708B51038FFF7F6FF08BD00BFC9B20171417100238371012380F8483E704700BF08B589691038FFF7F1FF08BD10B5044672B6FFF7C5FD0823E371204679
:4052C000FFF7FCFD62B6012384F8483E10BD00BF08B51AB91038FFF7EBFF08BD91F91030B3F1FF3F02D18869FFF7E2FF08BD00BF10B5A0F110041AB92046FFF7D9FF10BD6F
:4053000091F91030042B02D0052B09D010BD8B694FF47A7101FB03F12046FFF78DFF10BD0022064BD1E9060108F0B8FA08F08EFD01462046FFF780FF10BD00BF00408F40E7
:4053400010B5044672B60B4B5B6806E0DA79032A02D1012283F8482E1B68002BF6D12046FFF770FD0123E3712046FFF7A7FD62B610BD00BF9800002008B591F91030B3F153
:40538000FF3F02D18869FFF7DBFF08BD08B5034620B90820FBF7DAF9034620B100221A605A60184608BD002008BD00BF30B585B00C4608238A680146684600F0BDFC9DE8A7
:4053C0000F0084E80F001AB110460C30FFF7DEFF05B030BD72B603682BB9012303604160002062B670474368994211D070B50C4605460846FFF726FD0423E37101262672F9
:40540000E5602046FFF75AFD84F8486E002001E00120E6E762B670BD08B58B68A0F1100103F10C00FFF7D6FF30B1044B044A4FF48F71044808F02AFD08BD00BFF02A020025
:40544000B0290200EC2902000368002B30D043688B422FD170B5054672B6174B9C6811E0237A012B0DD1E3689D420AD16C602046FFF7E8FC0126E6712046FFF71FFD334616
:4054800003E02468002CEBD1002363B10A4B5B6806E0DA79032A02D1012283F8482E1B68002BF6D101E000232B6062B6002070BD01207047022070479800002008B58B6877
:4054C000A0F1100103F10C00FFF7BEFF30B1044B044A4FF49671044808F0D8FC08BD00BF0C2B0200C0290200EC29020072B6036823B9012303604160002000E0012062B6E8
:40550000704700BF10B50C468B68A0F1100103F10C00FFF7EBFF28B9204600F071FC0323237010BD204600F06BFC0223237010BD08B5FEF75DFFFEF7FBFC08BDF8B5064645
:405540000F46002404EB44029300104AD55AB54206D10E4A13449968384609F025FB98B1B54206D904EB4404A300084A13445C8805E004EB4404A300044A13449C88002C12
:40558000E0D14FF0FF30F8BD2046F8BDAC00002038B5204BD3F8104EB4F5967F07DB0A461D491E48FEF766FE4FF0FF342FE0194D631CC5F8103E630023449A00AB18A85208
:4055C0009960002303EB43018A0012498A5A90420ED203EB43018A000E490A4452882AB903EB43039A000A44548010E01346E9E703EB43018A0007490A4492882AB903EB76
:4056000043039A000A44948001E01346DAE7204638BD00BFAC0000203C2B0200502B020010B50C461031204600F054FA28B9204600F0E6FB0323237010BD204600F0E0FB96
:405640000223237010BD00BF30B589B00D46124BD3F8102E014604A8FBF7C4FA00240CE0002300930193039306238DF800300294694604A8FBF7F2FC0134074BD3F8103E2D
:405680009C42EDDB284600F0BBFB08AB13E90F0085E80F0009B030BDAC000020002307E003EBC30103EB81039BB213449BB201300278002AF4D11846704700BF2DE9F041B0
:4056C000044615460023036043608360C360062303701046FFF7E2FF06462946FFF72EFF00B2002801DBA06011E0284609F06EFA471C3846FBF72AF8804640B13A4629461E
:4057000008F03BFC41463046FFF742FFA0602046BDE8F08138B50446FFF7C0FF05462146FFF70CFF00B2002804DA21462846FFF72FFF00B238BD00BF00280BDB074BD3F8A9
:40574000103E984208DA00EB40008300034A1344986870470020704700207047AC00002070B584B006460C46B1F90800FFF7E4FF024631466846FDF76FF99DE80F0084E851
:405780000F0004B070BD00BF70B50446134B1A681349FEF7E1F90146124D2860124B134A2046FEF713FA124E3346124A29682046FEF70CFA3346104A29682046FEF706FA8A
:4057C0000E4B0F4A29682046FEF700FA0D4B0E4A29682046FEF7FAF970BD00BF18100020682B02001410002049560000702B020061570000302502007C2B02002D3F000015
:4058000010260200215600005825020010B50446D0F8A830984794F89030184214D0E3889BB2A288934201D301232372237A13F0FF0F09D1D4F8AC102068E3889BB25A1C18
:4058400092B2E280C05C884710BD00BF38B50446D0F8A43098472BE094F89130034224D0E589ADB26B1C9BB2E381D4F8B030984725442874E3899BB27F2B0BD8E28992B23E
:40588000A3899BB29A4210D1E3899BB2013B9BB2E3810AE0A3899BB22BB9E3899BB2013B9BB2E38101E00023E381D4F8A43098470028D1D138BD00BF38B5044600202060E3
:4058C0000A256581012525726072A081E08184F8901084F89120C4F89430049AC4F89820059AC4F89C20069AC4F8A020079AC4F8A820089AC4F8A420099AC4F8AC200A9A5E
:40590000C4F8B0209847D4F89C3003B19847D4F8A03003B1984738BD08B5D0F89C30984708BD00BF10B50446D0F8A03098470023A381E38110BD00BF037A13F0FF0F1BD0C3
:40594000E2B110B50446016082800123C38000230372D0F8AC3008789847637A13F0010F0ED14021002003F0C7FA237A13F0FF0FF7D0E08880B210BD002070470020704792
:40598000002010BDF8B504460D461746164600E00D46A28992B2E3899BB29A4205D14021002003F0A9FA2946F2E7691CA3899BB25A1C92B2A28123441B7C2B70A3899BB29E
:4059C0007F2B01D90023A381013EE1D1B81BF8BD38B505460C46084609F0F8F8024621462846FFF7A9FF38BDF8B504460D461746561E00E00D46A28992B2E3899BB29A42A0
:405A000005D14021002003F077FA2946F2E7691CA3899BB25A1C92B2A28123441B7CDBB22B70A28992B27F2A01D90022A281013E03D0B4F90A209342DCD100236B70B81BEF
:405A40000138F8BD828992B2C3899BB29A4205D8C3899BB2808980B2181A7047C3899BB2808980B2181A8030704700BF83899BB20CE05A1C92B203441B7CDBB2B0F90A1081
:405A80008B4209D000237F2A00D81346C28992B29342EED1002070470120704710B50C461021FBF71FF8034600B10470184610BD38B50D461021FBF715F8044638B10123C0
:405AC00003802846FFF726FEA0800023A360204638BD00BF2DE9F0410C4690F9003091F90020934223D0042B0BD1052A09D1806807F06EFE06460F4604F10805D5E9004572
:405B00005DE0052B09D1042A07D1D0E90267A06807F05EFE04460D4651E00BB9012A67D0012B01D1002A66D0981ABDE8F081013B172B63D8DFE803F00C0C0C0F140F19623D
:405B400062626262626262626262621919292D3F0020BDE8F08183688868181ABDE8F081D0E90267D1E9024529E08168A268914201D1002001E04FF0FF30914201D90223CA
:405B800000E000231844BDE8F081FBF73FFCBDE8F08189688C8883689D882246AC4228BF2A468968986808F0D9F910B9281BBDE8F081BDE8F081FCF775FDBDE8F081224695
:405BC0002B463046394608F0D1F810B14FF0000801E04FF0FF3822462B463046394608F0EDF808B1022000E000204044BDE8F0810020BDE8F0810020BDE8F0810120BDE8CD
:405C0000F08100BF08B590F90030143B052B12D8826813882BB9084B084A9F21084808F035F9FF2B05D1074B044AA021044808F02DF90133138008BDA82B0200842B020034
:405C4000C42B0200EC2B020008B590F90030163B032B0ED8DFE803F00205080BFBF76EF808BDFDF747F808BDFCF70CFD08BDFBF765F808BD30B403461A782B2A04D02D2A42
:405C800004D0202A05D107E0002500E00125013300E00025002013E00133EDE7602B01DD573B08E0402B01DD373B04E0A3F13004092C09D823468B4206DA01FB003013468F
:405CC0005A1C1B78002BE9D105B1404230BC704708B51C21FAF706FF034638B10022026042608260C260026142618261184608BD38B50446002505E0236953F82500FAF755
:405D00003FFE013523899D42F6DB13B12069FAF737FE002505E0A36953F82500FFF7E8FF0135A3889D42F6DB13B1A069FAF728FE2046FAF725FE38BDF8B504460E461746B2
:405D40000022026042608260C2601422027003F10C013046FAF7C6FEA06088B1054600213046FEF74DFCA86028B92846FAF708FE0023A36004E001232B801423AB706F6084
:405D80002046F8BD10B5044683689868FEF7E4FCA068FAF7F5FD10BD08B590F90030143B052B26D8826813882BB9124B124AC721124808F06BF8013B138082681388C3B9BF
:405DC00090F90030143B042B13D8DFE803F003060A0D1000FFF7D6FF08BD1046FAF7D0FD08BDFAF795FF08BDFCF77AFF08BDFCF73BFC08BD0C2C0200902B0200C42B0200DC
:405E000010B50446FFF7C8FF0023237010BD00BF70B506460D4614461046FFF7F3FEB368224629469868FEF717FC70BD30B585B004468B6811469868FEF764FC60B9002294
:405E4000009201920292039201228DF800209DE80F0084E80F0006E00546FFF7D3FE95E80F0084E80F00204605B030BD08B50248FEF700FA08BD00BF382C020010B40468E6
:405E8000230203F47F0343EA0463220A02F47F42134343EA14638B420DDD043007E00288130A43EA02239BB20333184401390029F5DC023000E0002010BC704708B5C26859
:405EC000D168038A013B51F82330190201F47F0141EA03611B0A03F47F431943C1F388315069FFF7CBFF08BD30B400F5CC64B0F85C3603EB83039A00A318D0F858569D6081
:405F0000C568A550028A9A801974D0F8302EDA60B0F85C360133A0F85C3630BC704700BF10B4B0F85C36013B9BB2A0F85C3600F5CC6103EB83039A008B189C68C0F85846D4
:405F40008A58C2609A880282DB68C0F8303E10BC704700BF70B5064630B94FF46460FAF7F5FB054608B943E00546002129E0224B53F82100C34314D01A0C02D11B041122D8
:405F800000E001221C0E01D108321B021C0F01D104321B019C0F01D102329B0002EBE37300E020231F2B0BDCC3F11F040122A2401043114A42F8210003EB4114013403E019
:405FC00001310029D3D000242CB99EB92846FAF7D7FC002070BD4FF464620021284607F0F2FF16B9012385F8393E2C71284670BD002070BD002070BDC00E002010B504468E
:406000000379013B1A46002B01DA03F11F02521112490B4003D5013B63F01F03013332B10F4B104A40F292610F4807F02FFFC3F11F03012101FA03F30C4850F8221021EA6D
:40604000030140F822102068FFF752FE94F9393E13B12046FAF794FC10BD00BF1F000080482C0200282C0200602C0200C00E002070B504460368C360002505821830C4F815
:4060800058064FF4C862294607F09DFF07232376094B1E682662A4F85C564FF4FA62294604F5CC6007F08FFFC4F8306EC4F8345E84F8385E70BD00BF1810002010B50446EB
:4060C000FEF76CFA2046FAF721FD10BD2DE9F04F8FB005460027EB68DB682A8A53F822100B0203F47F0343EA01640B0A03F47F43234343EA1164013292B22A82D5F858669A
:4061000004F07F03502B01F2C682DFE813F0CA0A5100650077008A00A000AA00BA00C400CE00E900C40AC40A03011F01C40AC40A32014D01C40AC40A5D017E019F01A701C1
:40614000B501C40AC40AC40AC40AC40AC40AC3012302C40A8302C40AC40A8E02C40AC40AA402C40AD002EA029103B1035E047E042C05DC05F805B9067C073C08FF08C40AC9
:40618000C40AC40AC40AC40A2A094D09C40A9609B509C40ADE09C40A040A3D0AC40A8D0AC40A9A0AC40AC40AC40AC40AC40AAF0AE70DC4F3883406EB07173846FFF720FE7D
:4061C00006EB04163046FFF71DFD96E80F0087E80F00002701F06CBAE30DC4F3CF1406EB03163046FFF70CFEEB681B6953F824300FCB86E80F00002701F05ABAE70D3F018E
:4062000006EB07084046FFF7FBFD0423F355C4F3CF14A4F5FF447F3CC8F80840002701F047BAE70DEB68C4F3CF115869FFF726FEFFF770FA80463C0137193846FFF7E0FD6C
:4062400006233355C7F80880002701F031BAE40D24013019FFF7D4FD01233355002701F027BAE40D06EB04142046FFF7C9FD3046FFF7C8FC96E80F0084E80F00002701F0EC
:4062800017BAE40D24013019FFF7BAFD03233355002701F00DBAE40D24013019FFF7B0FD02233355002701F003BAE70DEB68C4F3CF115869FFF7E2FDFFF72CFA804606EBA9
:4062C00007163046FFF79CFD06AC41462046FEF711F994E80F0086E80F00002701F0E8B9E70DEB68C4F3CF115869FFF7C7FDFFF711FA044606EB071606F1080393E80300EB
:406300008DE8030096E80C002046FEF779F8002701F0CEB9E70DEB68C4F3CF115869FFF7ADFD0130FFF7F6F90AAC024631462046FFF77CFD06EB07163046FFF761FD94E8FD
:406340000F0086E80F00002701F0B2B9E70DEB68C4F3CF115869FFF791FD0130FFF7DAF906EB071201463046FFF752FD002701F09FB9E70DEB68C4F3CF115869FFF77EFD65
:40638000FFF7C8F9804606EB07163046FFF738FD06AC41462046FEF7D7F894E80F0086E80F00002701F084B9E70DEB68C4F3CF115869FFF763FDFFF7ADF906EB0711FEF762
:4063C0005FF8002701F074B9E00DC4F38837C4F3C61405F5CC63B5F85C26141B04EB8404A200283A13449C6806EB00163046FFF707FD04EB07173846FFF704FC97E80F002A
:4064000086E80F00002701F053B9E70DC4F38830C4F3C61405F5CC63B5F85C26141B04EB8404A200283A13449B6803EB00142046FFF7E6FC06EB07163046FFF7E3FB96E855
:406440000F0084E80F00002701F032B902EBD412A2F500422A82002701F02AB9E30D1B01F356022B41F31F8102EBD413A3F500432B82002701F01CB9E30D1B01F356022B1B
:4064800001F3138102EBD413A3F500432B82002701F00EB9E70DC4F3883BC4F3C61A4FEA071906EB090898E80F000DF1380E0EE90F005744013704F07F04202C02D0212C2B
:4064C00007D00CE03C013019FFF79AFC0123335505E03B01F356012B01D0152B37D1EB6859465869FFF7CAFC0646FFF713F902900EAB13E903008DE803000AAB0CCB2846F3
:40650000FDF70EFB044630B932469DF92810BF48FDF7B0FE1BE0C37813F0010F0AD0C36852464146284698473B4600E001339F42FCDA0CE051462846FFF7D6FC00232B82AD
:40654000E368EB60D5F858364B44C5F85836002701F0AEB8E70DC4F3883BC4F3C61A4FEA071906EB090898E80F000DF1380E0EE90F005744013704F07F04202C02D0212CE4
:4065800007D00CE03C013019FFF73AFC0123335505E03B01F356012B01D0152B37D1EB6859465869FFF76AFC0646FFF7B3F802900EAB13E903008DE803000AAB0CCB284653
:4065C000FDF7AEFA044630B932469DF928108F48FDF750FE1BE0C37813F0010F0AD0C36852464146284698473B4600E001339F42FCDA0CE051462846FFF776FC00232B823E
:40660000E368EB60D5F858364B44C5F85836002701F04EB800212846FFF766FC00272F82B368DB68EB6001F043B805F5CC61B5F85C3603EB83039B00143B0B44C4F34461AE
:4066400014F0F87F01F033801B7C5B1A1A442A82002701F02DB8E40D06EB04140AAF94E80F0087E80F003846FFF7CCFA3046FFF7C7FB97E80F0086E80F00B5F85C36013B3E
:406680009BB2A5F85C3605F5CC6203EB830302EB83018868C5F8580652F82330EB608B882B82CB68C5F8303E002701F001B8E40D06F1100796F91030012B0ED006EB04148E
:4066C0002046FFF79DFB3846FFF79CFA97E80F0084E80F00002700F0EBBF4FF0FF3700F0E7BFE30D1A01B718B15604291CD1581C000106EB000E3056042805D1DEF80830C2
:40670000BA681344BB6090E005280DD10523B354DEE90289B86807F05BF842464B4606F00BFFC7E9020180E005291ED101331B01F218F356042B0BD1906807F049F80246F0
:406740000B46D7E9020106F0F7FEC7E902016CE0052B0AD102F10803D3E90023D7E9020106F0EAFEC7E902015FE0E70DC4F3883BC4F3C61A4FEA071906EB090898E80F00B1
:406780000DF1380E0EE90F005744013704F07F04202C02D0212C07D00CE03C013019FFF72FFB0123335505E03B01F356012B01D0152B3AD1EB6859465869FFF75FFB0646C4
:4067C000FEF7A8FF02900EAB13E903008DE803000AAB0CCB2846FDF7A3F9044630B932469DF928100948FDF745FD1EE0C37813F0010F0DD0C36852464146284698473B4670
:4068000000E001339F42FCDA0FE000BF842C020051462846FFF768FB00232B82E368EB60D5F858364B44C5F85836002700F040BFE30D1B01F718F356042B05D1C4F3C61424
:40684000BB682344BB6010E0052B0CD1C4F3C61006F0AEFF02460B46D7E9020106F06CFEC7E9020101E0FFF701FB002700F020BF4FEAD4584FEA0813F718F256042A1BD1E4
:4068800008F10101090170187156042904D18268BB689B1ABB6095E005290DD10522F254D0E90289B86806F093FF42464B4606F041FEC7E9020185E0052A1FD108F1010349
:4068C0001B01F218F356042B0BD1906806F080FF02460B46D7E9020106F02CFEC7E9020170E0052B0AD102F10803D3E90023D7E9020106F01FFEC7E9020163E0E70DC4F3D3
:4069000088330593C4F3C61B4FEA071A06EB0A0999E80F000DF1380E0EE90F005F44013704F07F04202C02D0212C07D00CE03C013019FFF765FA0123335505E03B01F356C3
:40694000012B01D0152B37D1EB6805995869FFF795FA0590FEF7DEFE02900EAB13E903008DE803000AAB0CCB2846FDF7D9F8044630B9059A9DF92810AE48FDF77BFC1BE0B8
:40698000C37813F0010F0AD0C3685A464946284698473B4600E001339F42FCDA0CE059462846FFF7A1FA00232B82E368EB60D5F858365344C5F8583608F1010006EB001094
:4069C000FFF71EFA002700F073BEE30D1B01F718F356042B05D1C4F3C614BB681B1BBB6010E0052B0CD1C4F3C61006F0E1FE02460B46D7E9020106F09DFDC7E9020101E0F4
:406A0000FFF734FA002700F053BE4FEAD4584FEA0813F718F256042A1CD108F10101090170187156042905D18368BA6803FB02F3BB6095E005290DD10522F254D0E902893B
:406A4000B86806F0C5FE42464B4606F027FFC7E9020185E0052A1FD108F101031B01F218F356042B0BD1906806F0B2FE02460B46D7E9020106F012FFC7E9020170E0052B26
:406A80000AD102F10803D3E90023D7E9020106F005FFC7E9020163E0E70DC4F388330593C4F3C61B4FEA071A06EB0A0999E80F000DF1380E0EE90F005F44013704F07F044B
:406AC000202C02D0212C07D00CE03C013019FFF797F90123335505E03B01F356012B01D0152B37D1EB6805995869FFF7C7F90590FEF710FE02900EAB13E903008DE803003F
:406B00000AAB0CCB2846FDF70BF8044630B9059A9DF928104748FDF7ADFB1BE0C37813F0010F0AD0C3685A464946284698473B4600E001339F42FCDA0CE059462846FFF794
:406B4000D3F900232B82E368EB60D5F858365344C5F8583608F1010006EB0010FFF750F9002700F0A5BD4FEAD4584FEA0813F718F256042A1CD108F1010109017018715674
:406B8000042905D18268BB6893FBF2F3BB6097E005290DD10522F254D0E90289B86806F017FE42464B4606F0A3FFC7E9020187E0052A1FD108F101031B01F218F356042B53
:406BC0000BD1906806F004FE02460B46D7E9020106F08EFFC7E9020172E0052B0AD102F10803D3E90023D7E9020106F081FFC7E9020165E0E70DC4F388330593C4F3C61B36
:406C00004FEA071A06EB0A0999E80F000DF1380E0EE90F005F44013704F07F04202C02D0212C09D00EE03C013019FFF7E9F80123335507E0842C02003B01F356012B01D074
:406C4000152B37D1EB6805995869FFF717F90590FEF760FD02900EAB13E903008DE803000AAB0CCB2846FCF75BFF044630B9059A9DF92810B948FDF7FDFA1BE0C37813F05F
:406C8000010F0AD0C3685A464946284698473B4600E001339F42FCDA0CE059462846FFF723F900232B82E368EB60D5F858365344C5F8583608F1010006EB0010FFF7A0F8C0
:406CC000002700F0F5BCE40D270106EB0708013406EB041421464046FEF7FCFE81462046FFF78EF84046FFF78BF8B9F1000F01D0022300E00323F355002700F0D9BC4FEA0F
:406D0000D4584FEA0817F119F357042B1FD108F101021201B018B256042A06D18B6882689342ACBF00230123A2E0052A0FD1D0E90289886806F04CFD4FF0010442464B46B3
:406D400007F01EF808B94FF00004E3B290E0052B29D108F101031B01F218F356042B11D1D1E90289906806F033FD4FF0010402460B464046494607F003F808B94FF000040B
:406D8000E3B275E0052B0ED14FF0010402F10803D3E90023D1E9020106F0F2FF08B94FF00004E3B264E0E70DC4F388330593C4F3C61B4FEA071A06EB0A0999E80F000DF1B6
:406DC000380E0EE90F005F44013704F07F04202C02D0212C07D00CE03C013019FFF710F80123335505E03B01F356012B01D0152B37D1EB6805995869FFF740F80590FEF77E
:406E000089FC02900EAB13E903008DE803000AAB0CCB2846FCF784FE044630B9059A9DF928104E48FDF726FA1BE0C37813F0010F0AD0C3685A464946284698473B4600E027
:406E400001339F42FCDA0CE059462846FFF74CF800232B82E368EB60D5F858365344C5F8583608F1010006EB0010FEF7C9FF04E00BB1032300E00223F355002700F018BC9B
:406E80004FEAD4584FEA0817F119F357042B1FD108F101021201B018B256042A06D18B6882689342CCBF00230123A5E0052A0FD1D0E90289886806F08BFC4FF00104424629
:406EC0004B4606F067FF08B94FF00004E3B293E0052B29D108F101031B01F218F356042B11D1D1E90289906806F072FC4FF0010402460B464046494606F04CFF08B94FF01E
:406F00000004E3B278E0052B0ED14FF0010402F10803D3E90023D1E9020106F03BFF08B94FF00004E3B267E0E70DC4F388330593C4F3C61B4FEA071A06EB0A0999E80F00DF
:406F40000DF1380E0EE90F005F44013704F07F04202C05D0212C0AD00FE000BF842C02003C013019FEF74CFF0123335505E03B01F356012B01D0152B37D1EB6805995869FA
:406F8000FEF77CFF0590FEF7C5FB02900EAB13E903008DE803000AAB0CCB2846FCF7C0FD044630B9059A9DF92810B148FDF762F91BE0C37813F0010F0AD0C3685A46494646
:406FC000284698473B4600E001339F42FCDA0CE059462846FEF788FF00232B82E368EB60D5F858365344C5F8583608F1010006EB0010FEF705FF04E00BB1032300E0022321
:40700000F355002754E34FEAD4584FEA0817F119F357042B1FD108F101021201B018B256042A06D18B6882689342D4BF00230123A2E0052A0FD1D0E90289886806F0C8FB8C
:407040004FF0010442464B4606F0B8FE08B94FF00004E3B290E0052B29D108F101031B01F218F356042B11D1D1E90289906806F0AFFB4FF0010402460B464046494606F092
:407080009DFE08B94FF00004E3B275E0052B0ED14FF0010402F10803D3E90023D1E9020106F08CFE08B94FF00004E3B264E0E70DC4F388330593C4F3C61B4FEA071A06EB1C
:4070C0000A0999E80F000DF1380E0EE90F005F44013704F07F04202C02D0212C07D00CE03C013019FEF78CFE0123335505E03B01F356012B01D0152B37D1EB680599586911
:40710000FEF7BCFE0590FEF705FB02900EAB13E903008DE803000AAB0CCB2846FCF700FD044630B9059A9DF928105148FDF7A2F81BE0C37813F0010F0AD0C3685A46494626
:40714000284698473B4600E001339F42FCDA0CE059462846FEF7C8FE00232B82E368EB60D5F858365344C5F8583608F1010006EB0010FEF745FE04E00BB1032300E0022321
:40718000F355002794E24FEAD4584FEA0817F119F357042B1FD108F101021201B018B256042A06D18B6882689342B4BF00230123A5E0052A0FD1D0E90289886806F008FBA9
:4071C0004FF0010442464B4606F0EEFD08B94FF00004E3B293E0052B29D108F101031B01F218F356042B11D1D1E90289906806F0EFFA4FF0010402460B464046494606F09A
:40720000D3FD08B94FF00004E3B278E0052B0ED14FF0010402F10803D3E90023D1E9020106F0C2FD08B94FF00004E3B267E0E70DC4F388330593C4F3C61B4FEA071A06EB2A
