:4000000000800020110000007D8F00007D8F000008B5044B1A6803F53F5302331A6008F0D3FF00BFFA46004010B5054C237833B9044B13B10448AFF300800123237010BD85
:40004000A881FF1F0000000094340100084B10B51BB108490848AFF300800848036803B910BD074B002BFBD0BDE81040184700BF00000000AC81FF1F94340100C880FF1FB0
:4000800000000000074B1B7803F0FC038A69012A04D143F00303034A13707047014A1370704700BF505100408B69012B03D1FF22034B1A7070470022014B1A70704700BF7F
:4000C00020510040024B1A780A7E1A70704700BF205100408A6A8B699B009A40D2B20F2101FA03F303480178C9B24A4013404B40037070472051004008B506F08BF908BDB7
:4001000008B50AF013FA08BD08B50CF0DBFD024A13680133136008BDC481FF1F10B50AF07BFE0AF071FC0BF0A9FA0AF0FFFF0BF041F909F053FE04E04FF4046100200AF0B5
:40014000B5F80B4B1A685B689A42F5DB0024084B1C6009F04FFF214620460BF057FA0AF06FFE0AF093FC0BF001F80BF043F910BDC481FF1F10B50C460CF060FD00220A4B06
:400180001A60A36903F109000A2803DC0122064B5A6002E0044A53600A20C0B20CF06AFD0CF082FD10BD00BFC481FF1F08B50AF02BFC0AF031FE0BF061FA0CF09DFD09F045
:4001C0000DFE0AF067F909F015FF0AF039FE0AF05DFC002108460BF019FA0CF087FD08BDD0B50C46D1E906010DF014F806460F46204607F02BF805232370C4E90267D0BD27
:4002000038B50C46044B1D78EDB2084607F01EF804232370A56038BD2151004038B50C46087E0EF089FC02460B4600204FF080410DF070F80EF0CEFF064B1D782840A369B0
:4002400040FA03F5204607F001F804232370A56038BD00BF2151004010B50C46087E0EF06BFC02460B4600204FF080410DF052F80EF0B0FFC0B205490B7823EA0003A26AC3
:40028000A469A24010401843087010BD2051004038B50C46886901380EF05EFC02460B4600204FF080410DF035F80EF093FF074B1D782840A569013D40FA05F5204606F04F
:4002C000C5FF04232370A56038BD00BF5151004038B50C46886901380EF03EFC02460B4600204FF080410DF015F80EF073FFC0B2064D2B7823EA0003A16AA269013A01FA4D
:4003000002F210401843287038BD00BF5051004008B58B69012B02D101480AF02DF908BD0101000010B508461446114605F040FE204610BD10B508461446114605F038FEF8
:40034000204610BD10B500240FE0601040EA241000F001000CF03AFC05F048FE05F00CFE38B90A2009F04CF90134FF2CEDDD012010BD002010BD00BF2DE9F041002004F0CF
:400380002BF8002002F026F9002000F033F9002000F0C6F93C4C22683C49002004F070FD0546DFF858813A4B42460146002004F0A5FD384F384B3A462946002004F09EFD19
:4003C000364B374A2946002004F098FD354E364B32462946002004F091FD22683349002004F04EFD0546324B42460146002004F085FD304B3A462946002004F07FFD2E4B51
:400400002E4A2946002004F079FD2D4B32462946002004F073FD2B4B2B4A2946002004F06DFD2A4B2A4A2946002004F067FD294B294A2168002004F061FD284B284A216870
:40044000002004F05BFD274B274A2168002004F055FD264B264A2168002004F04FFD0024244D0BE0244E36F814304BB10021284606F0ACF836F814301D440134032CF1DDE6
:4004800006F0DEF8BDE8F081301000209834020085000000A4340200D102000011030000AC340200B834020091020000C0340200A900000059020000C5000000C4340200CA
:4004C0001D02000001020000D0340200D5000000DC340200E1010000EC340200AD010000F034020075010000FC3402001D01000010350200A034010098340100A034020090
:4005000008B562B614480CF01BFB002108460BF07DF80CF0A3FA0AF011FC10480CF0F2FB0CF0C2FB0AF07CF805F01CFD47F61E010B4805F0ADFFFFF705FF20B901200CF043
:4005400045FB05F01DFE00200CF040FB0CF088FAFFF712FF002008BDF900000009010000CC81FF1F08B58B68DB681B68984708BD08B50AF0AFFD01200AF0B8FD0028FAD0BD
:400580000AF0C6FD08BD00BF08B50AF0E7FE01200AF0F0FE0028FAD00AF0FEFE08BD00BF38B50C468B68DB689B6898470546204606F04CFE04232370A56038BD30B585B0D3
:4005C0000C4604238A680146684606F00FFE9DE80F0084E80F00A36903EB43039900024B0B44D36005B030BD480F0020016042608360704710B5144C144B154A1549204684
:40060000FFF7F4FF144B154A154904F10C00FFF7EDFF144B1A681449002004F031FC0446124B134A0146002004F068FC114B124A2146002004F062FC104B114A21460020C2
:4006400004F05CFC10BD00BF480F002071050000FDAF0000B9B000008905000085B2000041B300003010002028350200BD050000A0340200650500002C350200A10500001D
:40068000B8340200024A137843F0F0031370704760510040034A13788B691B01DBB21370704700BF6051004038B50C460CF09AFA0546204606F0CAFD04232370A56038BDD4
:4006C0002DE9F0410D46886901380EF045FA02460B4600204FF080410CF01CFE0EF07AFDC0B20401E4B20D4F3E7884F0FF031E4097F800805FFA88F8284606F0A7FD0423AB
:400700002B70C5F80880AB6AA869033003FA00F0044034433C70BDE8F08100BF6051004038B5104D2A681049002004F0A9FB04460E4B0F4A0146002004F0E0FB0D4B0E4A97
:400740002146002004F0DAFB0C4B0D4A2146002004F0D4FB0B4B0C4A2968002004F0CEFB38BD00BF301000203435020085060000A0340200C1060000A434020095060000FB
:40078000DC340200A90600003835020008B5884206D30C4B0C4A40F207110C480EF03AFD0A78037862F3000303704A88438813449BB24380027812F0010F01D118448380A0
:4007C00008BD00BF743502003C3502008035020008B5030C34D1C0F3CF139BB11A0A03D11B029BB2092200E00122190B02D104321B019BB2990B02D102329B009BB2A2EBA8
:40080000D33300E01023D3F1100202D1C3F1140301E0C3F11303D84000F0070000EBC200002A05DA074B084A9A2108480EF0F2FC092A06DD064B044A9B2104480EF0EAFC7F
:40084000502008BD88350200483502008035020094350200F8B50446037843F0020303704088FFF7B5FF0138C0F3C80200F007064FF4004141FA02F70B4B1D883D431D8071
:40088000314103EB42029588294391800022E26003EB8003DB69A36003B1DC60024B03EB8000C461F8BD00BFECF9FF1F10B50446C36823BB4088FFF78BFF0138A268134B96
:4008C00003EB8003DA61E2B9C0F3C80100F007004FF4004343FA00F00C4A02EB4102938823EA00039BB293805BB94FF4004343FA01F1064A138823EA0103138001E0826857
:400900009A60A3680BB1E268DA6010BDECF9FF1F08B531B90E4B0F4A40F21D110E480EF079FCB1F5803F06D30C4B0A4A4FF48F7109480EF06FFC0A4BC3F86001037843F01B
:4009400003030370418000238380FFF783FF08BDE03502005435020080350200EC350200ECF9FF1F70B51030434203F00303C5180F2D06D87D4B7E4A40F245117D480EF0A6
:4009800049FC2846FFF724FFC0F3C80100F00706794B03EB8003DC69002C40F09580764B03EB41039A884FF4004333415E1E164016D09EB1330A03D13602B6B2092300E034
:4009C0000123320B02D104333601B6B2B20B02D10233B600B6B2A3EBD63643E0102641E04FF4004343FA01F10139634B1B8819408BB283B39BB11A0A03D119028BB2092124
:400A000000E001211A0B02D104311B019BB29A0B02D102319B009BB2A1EBD33100E01021554B03EB41039B889BB11A0A03D11E02B3B2092600E001261A0B02D104361B01A8
:400A40009BB29A0B02D102369B009BB2A6EBD33608E0102606E01C2248490120FFF762FC002070BD002906DA454B414A40F2611140480EF0CFFB092906DD424B3C4A4FF4DF
:400A8000B1713C480EF0C6FB002E06DA3E4B384A40F2631137480EF0BDFB072E06DD3B4B334A4FF4B27133480EF0B4FB06EBC100314B03EB8003DC6934B9354B2C4A4FF42A
:400AC000B4712C480EF0A6FB63889D4206D9314B274A4FF4B57127480EF09CFB23786FF341032370A268244B03EB8000C261B2B94FF4004343FA06F61F4A02EB41029388FF
:400B000023EA0606B6B296805EB94FF4004343FA01F1194A138823EA0101118001E00023D360638805F12002934216D36019E618AAB29B1A438082802178635D61F30003BF
:400B40006355628023786FF300032370635D13F0010F03D1331AB38000E0002008B1FFF779FE0023637004F1080070BD103602006435020080350200ECF9FF1F3C360200CA
:400B800088350200943502005C360200B4350200683602007836020070B50546A0F1080430F8063CE61810F8082C12F0010F0AD1E35C13F0020F06D03046FFF777FE3146BD
:400BC0002046FFF7E3FD35F8043C5B42E5180BD0E35C13F0020F07D02846FFF767FE21462846FFF7D3FD2C462046FFF733FE70BD2DE9F04105460F46A0F1080601F1100491
:400C0000634203F003031C4430F8063C9C4216D906EB030810F8082C12F0010F0FD1F25C12F0020F0BD0B8F8022013449C4206D84046FFF73BFE41463046FFF7A7FD35F8BB
:400C4000062C944250D03AD204F120039A421BD33319B018A1B2521A5A80998015F8087C325D67F30002325525F8061C15F8082C6FF3000205F8082C325D12F0010F05D109
:400C8000C21A82801C4602E0002400E01C4674B36388E618227812F0010F0AD1E35C13F0020F06D03046FFF701FE31462046FFF76DFD2046FFF7CEFD2846BDE8F08138461B
:400CC000FFF750FE0446A8B135F8062C083A29460EF017FB15F8073C04F8073C2846FFF75BFF2046BDE8F0812846BDE8F0812846BDE8F0810020BDE8F08100BF10B5044618
:400D00000846FFF72FFE20B12CB1227900F8072C10BD002010BD10BD08B508461146FFF767FF08BD08B50846FFF736FF08BD00BF70B50F4BD3F8604106790125002011E069
:400D4000237813F0010F00D0002513F0020F07D163789E4204D108B1FFF71EFF04F1080063881C44002DEBD108B1FFF715FF70BDECF9FF1F00F8071C704700BF38B50C4694
:400D80008B68DD88084606F061FA04232370A56038BD00BF10B50C468B68DB882BB1084606F054FA0223237010BD084606F04EFA0323237010BD00BF2DE9F041884601F191
:400DC00010078B689E68DD88002406E0394606EB041006F0C5F810B10134AC42F6DBAC4209DA404606F032FA042388F80030C8F80840BDE8F081404606F028FA012388F8D8
:400E00000030BDE8F08100BF2DE9F04F89B0129FDDF84C809C68E488002C35D01E4693468A468146002425462CE0B36899682A018B188A56162A08D1CDF8048000975A465A
:400E400051464846FFF7E0FF12E000220292104A019200935B465246494604A804F01CFA04A9384602F034FD044304A806F0EEF90135B368DB889D4206DA4146384602F04A
:400E800027FD0443002CD0D009B0BDE8F08F00BF943602002DE9F04190B005460C46174600231A4601460CA802F026FA0E9B7BB32FB91B4A294608A802F00EFB0CE004F163
:400EC000100300220292174A019200933B462246294608A804F0E0F90DF12008CDF804800CAE009623463A4621462846FFF78CFF404606F0ABF904AD96E80F0085E80F00F5
:400F0000204606F0A3F995E80F0084E80F0004E0204606F09BF90123237010B0BDE8F081003E020094360200F8B504460E4617460023036043608360C360162303700C2195
:400F40003046FFF7DBFE90B1054639013046FFF7D5FE18B92846FFF71FFE08E001222A801622AA70AF800022EA80A860A5602046F8BD00BF70B588B00E468D68EA880146CD
:400F800004A8FFF7D1FF069CF4B1EA881201A968A0680EF0B6F9ED88E580A06800EB051504E000F1100406F087F82046A842F8D308AB13E90F008DE80F00304606F046F9E0
:400FC0009DE80F0086E80F0008B070BDF0B589B091F91030162B05D00A2221490120FFF7A1F93AE00E468D688F69EA88FB881A44014604A8FFF798FF069C74B3EA8812017A
:40100000A968A0680EF07DF9A368E888FA881201B96803EB00100EF074F9ED88FB881D44ADB2E580A06800EB051504E000F1100406F042F82046A842F8D306F1100006F02E
:401040003DF908AB13E90F008DE80F00304606F0FDF89DE80F0086E80F0009B0F0BD00BF9C36020070B58668B068F58800EB051504E000F1100406F0E9F82046A842F8D305
:40108000B068FFF789FD3046FFF786FD70BD00BF38B5846800212046FFF76CFEA068E58800EB051504E000F1100406F027F82046A842F8D338BD00BF38B50D468468090184
:4010C000A068FFF795FD18B1A060A580002038BD012038BDF8B5174686680D1E02DAF388ED1827D4B3889D4203DB691CFFF7E4FF10BBF288954210DAB06800EB051006F063
:40110000A5F80EE0B06811014418002343506360A360E360012343541A449542F2DC6B1CF380B36803EB051597E80F0085E80F000020F8BD0520F8BD0120F8BD10B5022A84
:401140000ED10C4691F91030042B09D101F1200289692046FFF7BEFF002384F8203010BD232202490120FFF7DDF810BDA836020070B58CB00C469AB9014604A8FFF7D4FEA6
:40118000069B002B6BD008AD04AB0FCB85E80F00204606F05BF895E80F0084E80F005EE01346012A2AD191F91020042A26D18A69002A23DB01466846FFF7B6FE029B002B9A
:4011C0004DD00023049305930693079301238DF81030A169002904DD04AA01396846FFF779FF08AD9DE80F0085E80F00204606F02DF895E80F0084E80F0030E0022B29D1C8
:4012000094F91030042B25D1A269002A22DB014604A8FFF789FE069B0BB300250AE004F12006304605F048FF3246294604A8FFF751FF0135A3699D42F1DB08AD04AB0FCBDB
:4012400085E80F00204606F001F895E80F0084E80F0004E00E2203490120FFF763F80CB070BD00BFCC36020010B404468B68002A01DAD9880A44002A02DBD9888A4207DB4D
:40128000002323606360A360E3600123237005E09B6803EB02120FCA84E80F00204610BC704700BF2DE9F04190B007460D469046224A01460CA802F00FF90E9B002B35D0AB
:4012C00000241DE01CB11E490CA802F03BFB04AE224629463046FFF7C7FF00230293194B0193009643462A46394608A803F0D4FF08A90CA802F0ECFA08A802F04BFA013475
:40130000AB68DB889C42DDDB0CAE0F49304602F019FB08AC96E80F0084E80F00284605F095FF94E80F0085E80F0004E0284605F08DFF01232B7010B0BDE8F081DC360200DD
:40134000E0360200E4360200EC36020070B588B00E4604AD4FF0FF322846FFF785FF284605F0AAFE95E80F008DE80F00304605F06DFF9DE80F0086E80F0008B070BD00BFB4
:4013800070B588B00E4604AD00222846FFF76CFF284605F091FE95E80F008DE80F00304605F054FF9DE80F0086E80F0008B070BD70B50E468568EB88A9888B4203D3063140
:4013C000FFF77AFE58B9AB68EC88621CEA8003EB041496E80F0084E80F00002070BD012070BD00BF10B50C4610312046FFF7E0FF0023237410BD00BF70B588B00C46012AE4
:4014000017D191F91030042B13D18A696846FFF72BFF684605F050FE04AD9DE80F0085E80F00204605F012FF95E80F0084E80F0049E0022A42D194F91030042B3ED194F901
:401440002030042B3AD1A368DE88A369002B00DA3344002B2CDBF61AA36A9E42A8BF1E46002E25DB324601466846FFF75DFD029B4BB300250DE0A2692A44214604A8FFF7D5
:40148000F3FE04A805F018FE04A96846FFF790FF0135B542EFDB04AD9DE80F0085E80F00204605F0D3FE95E80F0084E80F000AE0204605F0CBFE0123237004E0232203497F
:4014C0000120FEF72FFF08B070BD00BFA836020010B404468968CB8833B9036043608360C3600123037008E08A68013B9BB2CB8002EB03130FCB84E80F00204610BC704754
:4015000070B588B082B90D466846FFF7E1FF04AC9DE80F0084E80F00284605F097FE94E80F0085E80F0004E0242203490120FEF7F9FE08B070BD00BFF0360200F0B585B055
:4015400004468F68FD883DB90023036043608360C3600123037012E0D7F808E09EE80F008DE80F006A1E92B2FA8012010EF1100170460DF0D1FE9DE80F0084E80F002046C7
:4015800005B0F0BD70B588B082B90D466846FFF7D5FF04AC9DE80F0084E80F00284605F055FE94E80F0085E80F0004E0262203490120FEF7B7FE08B070BD00BF18370200B2
:4015C000F8B5174685680C1E03DAEB881C4401343BD4A9888C4201DB611C05E0EB88994201D8013100E0002111B1FFF765FD70BBEA88944209DAAB68601C121B120103EB12
:40160000041103EB00100DF087FEAE6806EB041697E80F0086E80F00EB8801339BB2EB809C4216DB013B0AE0A86819014618002242507260B260F2600122425413449C4235
:40164000F2DC0134EC800020F8BD0520F8BD0120F8BD0020F8BD00BF08B50A460021FFF7AFFF08BD10B50C4610312046FFF7F4FF0023237410BD00BF2DE9F04184B0044699
:401680008F68161E01DAFB881E44002E02DBFD88AE4207DB002323606360A360E360012323701BE0D7F808C00CEB061E9EE80F000DF1100808E90F00013DADB2FD80AE4215
:4016C00007DA711CAA1B12010CEB011170460DF023FE04AB13E90F0084E80F00204604B0BDE8F08170B588B00D4604AE8A693046FFF7C2FF96E80F008DE80F00284605F06C
:40170000A5FD9DE80F0085E80F0008B070BD00BF70B58668B068F58800EB051504E000F1100405F093FD2046A842F8D30023F38070BD00BF08B50846FFF7EAFF08BD00BF2D
:4017400070B506460D460024B268D3889C4203DAA968C888844203DBAA68D088181A70BD9368200189680144184405F0F9FB08B90134E9E770BD00BF2DE9F0478468E38896
:401780001BB90B601360BDE8F08791468A46D4F808804746012514E0A0682E014146304405F0DEFB002802DAA36803EB0608A0683946304405F0D4FB002801DDA76837445F
:4017C0000135E3889D42E7DBCAF80080C9F80070BDE8F08770B58EB00D460023089309930A930B9301238DF820300222014604A8FFF79AFB0CAA0DA92846FFF7BDFF0D9BFE
:401800000BB908AB0D930C9B0BB908AB0C930D9805F052FC0C9805F04FFC04AE0D9A00213046FFF757FC0C9A01213046FFF752FC96E80F008DE80F00284605F007FD9DE850
:401840000F0085E80F000EB070BD00BF30B587B00D4604AA05A92846FFF78EFF049828B9284605F0F3FC01232B700CE005F024FC049B0FCB8DE80F00284605F0E7FC9DE820
:401880000F0085E80F0007B030BD00BF30B587B00D4604AA05A92846FFF76EFF059828B9284605F0D3FC01232B700CE005F004FC059B0FCB8DE80F00284605F0C7FC9DE8A5
:4018C0000F0085E80F0007B030BD00BFF8B50446534B1A68534903F0D3FA0146524D2860524B534A204603F009FB524B524A2968204603F003FB514E3346514A29682046B7
:4019000003F0FCFA33464F4A2968204603F0F6FA4D4B4E4A2968204603F0F0FA4C4F3B464C4A2968204603F0E9FA4B4B4B4A2968204603F0E3FA4A4B4A4A2968204603F04A
:40194000DDFA494B494A2968204603F0D7FA484E3346484A2968204603F0D0FA3346464A2968204603F0CAFA3346444A2968204603F0C4FA424B434A2968204603F0BEFA37
:40198000414B424A2968204603F0B8FA404B414A2968204603F0B2FA3B463F4A2968204603F0ACFA3D4B3E4A2968204603F0A6FA3C4B3D4A2968204603F0A0FA3B4B3C4AF5
:4019C0002968204603F09AFA3A4B3B4A2968204603F094FA394B3A4A2968204603F08EFA384B394A2968204603F088FA374B384A2968204603F082FA364E3346364A296883
:401A0000204603F07BFA3346344A2968204603F075FA334B334A2968204603F06FFAF8BD30100020403702002810002071110000A0340200CD0F000048370200F913000093
:401A40004C370200503702003D11000054370200E513000058370200351700005C370200E516000064370200950D0000703702007D0D00007837020080370200883702007B
:401A8000B90D00009037020081130000983702004D130000A0370200A837020001150000B037020085150000B437020065160000BC370200750F0000C43702008D180000FC
:401AC000C83702004D180000CC370200D5170000D0370200A5120000E436020094360200950E0000D837020038B50C468B68DD886D08084605F0AAFB04232370A56038BD8B
:401B000030B587B00D468A68009293680193D48803EB041402949DE8070006AB03E9070008E000F12003049305F11001103005F017FA20B10498A042F3D3002300E00123DF
:401B40002BB1284605F082FB03232B7004E0284605F07CFB02232B7007B030BD10B50C468B68DB885B0805D0084605F06FFB0223237010BD084605F069FB0323237010BDC2
:401B800070B588B00D468A68009293680193D68803EB061602969DE8070008AB03E907000DE004F12003069305F1100104F1100005F0D6F918B9204605F07EFA03E0069C99
:401BC000B442EED300245CB194E80F008DE80F00284605F03BFB9DE80F0085E80F0004E0284605F033FB01232B7008B070BD00BF2DE9F04F95B080468B469146364A01469E
:401C000010A801F069FC129B002B5CD0DBF8083008939A680992B3F806A002EB0A1ACDF828A00DAB08AA07CA83E80700012635E01EB92A4910A801F085FE05F120030E9347
:401C400008AC00260296264F019700954B465A464146204603F020FB214610A801F038FE204601F097FD1F4910A801F06BFE05F1100304AD0296019700934B465A46414644
:401C8000284603F009FB95E80F0084E80F00214610A801F01DFE204601F07CFD0E9D5545C6D310AD1049284601F04CFE08AC95E80F0084E80F00584605F0C8FA94E80F0085
:401CC0008BE80F0005E0584605F0C0FA01238BF8003015B0BDE8F08FE0370200E0360200E4360200E4370200E837020070B58CB00E468B68DA885208014608A8FFF714F987
:401D0000B268009293680193D58803EB0515029505AB9DE8070083E807000BE000F12003069300F11004214608A8FFF741FB204605F0C2F90698A842F0D30CAB13E90F00B5
:401D40008DE80F00304605F081FA9DE80F0086E80F000CB070BD00BF70B58CB00E468B68DA885208014608A8FFF7DEF8B268009293680193D58803EB0515029505AB9DE8AD
:401D8000070083E8070009E004F120030693214608A8FFF70DFB204605F08EF9069CAC42F2D30CAB13E90F008DE80F00304605F04DFA9DE80F0086E80F000CB070BD00BF13
:401DC000F8B504460F4616460023036043608360C360192303700C213846FEF78FFF98B1054671013846FEF789FF18B92846FEF7D3FE09E001222A801922AA707600AE807A
:401E00000022EA80A860A5602046F8BD70B588B00D4604AE002201463046FFF7D1FF96E80F008DE80F00284605F010FA9DE80F0085E80F0008B070BD08B5FFF713F908BDF0
:401E400070B50E4683689C68DD8804EB051505E03146204605F084F820B12034AC42F7D3002070BD204670BD10B50C4610312046FFF7E6FF28B1204605F0E8F90323237035
:401E800010BD204605F0E2F90223237010BD00BFF8B507460D461646FFF7D2FF58B929463846FFF785FA0346A8B931463846FFF77FFA03460FE0044605F0C8F995E80F0026
:401EC00084E80F001034204605F0C0F996E80F0084E80F0000231846F8BD00BFF0B587B00F468A69009293680193D68803EB061602969DE8070006AB03E907000FE004F1B9
:401F00002003049304F110052A4621463846FFF7BFFF204605F0D0F8284605F0CDF8049CB442ECD307B0F0BD022A0CD110B50C4601F1200210312046FFF7AAFF002323749C
:401F400084F8203010BD704710B5044608461146FFF776FF20B110300FC884E80F0006E0002323606360A360E36001232370204610BD00BF012A18D170B588B00C4604AEDC
:401F800001F110023046FFF7DFFF304605F094F896E80F008DE80F00204605F057F99DE80F0084E80F0008B070BD7047F0B585B005460F4611463846FFF742FF38B90023DB
:401FC0002B606B60AB60EB6001232B7019E0064605F03CF906F110030FCB8DE80F00BA68D388023B9BB2D380926802EB0312921B06F1200130460DF08FF99DE80F0085E888
:402000000F00284605B0F0BD70B588B00D4604AE01F110023046FFF7C9FF96E80F008DE80F00284605F012F99DE80F0085E80F0008B070BD08B5FFF76BFB08BD08B50846CA
:40204000FFF7F8FF08BD00BFF8B58368DC888A68D288944219D10F4606469C6800250DE021463846FFF7ECFE014680B1103104F1100004F075FF60B901352034B368DB8824
:40208000B5EB530FECDB0020F8BD0120F8BD0120F8BD0120F8BD00BF70B5064614469368DA885208FFF78CFEB568A5B1A468E2881201A168A8680DF024F9E388EB80A06832
:4020C000E58800EB051504E000F1100404F0F4FF2046A842F8D3304670BD00BFF0B58DB00F460A46014608A8FFF7D6FFBA69009293680193D68803EB0616029605AB9DE85F
:40210000070083E807000FE004F12003069304F110052A46214608A8FFF7BAFE204604F0CBFF284604F0C8FF069CB442ECD30CAB13E90F008DE80F00384605F087F89DE8E6
:402140000F0087E80F000DB0F0BD00BF70B588B00D4604AE0A4601463046FFF79DFF96E80F008DE80F00284605F070F89DE80F0085E80F0008B070BD70B50446404B1A685B
:40218000404902F07DFE01463F4D28603F4B404A204602F0B3FE3F4B3F4A2968204602F0ADFE3E4B3E4A2968204602F0A7FE3D4B3D4A2968204602F0A1FE3C4B3C4A296836
:4021C000204602F09BFE3B4B3B4A2968204602F095FE3A4B3A4A2968204602F08FFE394B394A2968204602F089FE384B384A2968204602F083FE374B374A2968204602F016
:402200007DFE364B364A2968204602F077FE354E3346354A2968204602F070FE3346334A2968204602F06AFE3346314A2968204602F064FE2F4B304A2968204602F05EFE33
:402240002E4B2F4A2968204602F058FE2D4B2E4A2968204602F052FE2C4B2D4A2968204602F04CFE2B4E33462B4A2968204602F045FE3346294A2968204602F03FFE70BD11
:4022800030100020EC3702001C1000200D1E0000A0340200751F00004C370200291F0000543702003D2000005C3702004D210000C437020009200000F43702005D1B000033
:4022C00070370200691E0000FC370200011B000008380200811B000014380200591D000018380200E91A0000783702008037020088370200DD20000020380200DD1E0000E9
:4023000028380200ED44000030380200ED1C000038380200F11B0000E43602009436020010B58C6808F0CAFC00232373637310BD70B50C468E6808F0A5FC05463073204604
:4023400004F084FF04232370A56070BD2DE9F0470C46D1F80890012A5FDD91F91030042B5BD18D6991F92030012B03D0042B54D18E6A01E04FF0FF36022A0CDD94F93030FC
:40238000172B04D1A36BB3F804809F6806E0A2F10208002702E000274FF0FF3899F80D303BB908F08BFC0021E8B208F081FB054604E00021E8B208F0BBFB054695BB0123D2
:4023C00089F80D30002E04DBF0B208F003FC054640BBB8F1000F2ADB002614E03FB107F1010A387808F0F6FB0546574609E0F31C1B01E218E356042B14D1107A08F0EAFB26
:4024000005467DB90136B045E8DC08F0C7FB054640B9002389F80D3009E00A4803F064F9002504E008F0BAFB002389F80D3089F80C50204604F00AFF04232370A560BDE886
:40244000F08700BF403802002DE9F04F8DB007460D4616468C6804AB0022049205920692079201228DF810200FCB0DF1300E0EE90F00B31E012B76D895F91030042B72D17C
:40248000D5F8189095F92030012B04D0042B6AD1D5F8288001E04FF0FF38032E0DD195F93030042B5FD1D5F838B00BF101013846FEF724FC824620B965E04FF0FF3B4FF053
:4024C000000A637B4BB908F0F9FB4FEAD8715FFA89F008F0EDFA064606E04FEAD8715FFA89F008F025FB0646002E41D101236373B8F1000F0CDB5FFA88F008F06BFB064693
:40250000B0BB01215FFA89F008F012FB064678BBBBF1000F38DB0BF1FF38564608E006F10109012008F082FB307008F1FF384E46B8F1000FF3DC002008F078FB3070002363
:40254000737008F02BFB064690B95B4652463946684600F0D3FF9DE80F000CAF07E90F000023637310E0114803F0BEF800260BE008F014FB00236373BAF1000F04D050462F
:40258000FEF70AFB00E00026267304AC0CAB13E90F0084E80F00284604F058FE94E80F0085E80F000DB0BDE8F08F00BF6038020030B585B00C4602238A680146684604F030
:4025C00015FE9DE80F0084E80F0000231373537305B030BD38B5044608F022F8124B1A681249204602F04CFC0546114B114A0146204602F083FC104B104A2946204602F0E9
:402600007DFC0F4B0F4A2946204602F077FC0E4B0E4A2946204602F071FC0D4B0D4A2946204602F06BFC38BD301000207C380200B1250000A034020049240000B834020060
:402640004D230000A4340200312300008038020021230000883802001F2909DC002901DB8840704711F11F0F04DB49420841704700207047002070478B68002B01DA5B426D
:402680008B60704770B50C468E68CD6800220023304629460CF038FD20B1324605F10043C4E9022370BD00BF2DE9F04194B022B18A69931E222B28D800E00A220C468046C8
:4026C00009AF0D970F970DF133030E930025109511951295139564238DF8443089680DA802F06EFF0F9B1D7004AE3A464146304600F0F2FE96E80F008DE80F00204604F00E
:40270000A5FD9DE80F0084E80F0014B0BDE8F081D0B50C4688680CF01FFA06460F46204604F094FD05232370C4E90267D0BD00BF38B50C4689694942A068FFF78DFF0546F8
:40274000204604F083FD04232370A56038BD00BF38B50C468969A068FFF77EFF0546204604F074FD04232370A56038BD38B50C468D68ED43084604F069FD04232370A560CB
:4027800038BD00BF38B50C468D698B685D40084604F05CFD04232370A56038BD38B50C468D698B681D43084604F050FD04232370A56038BD38B50C468D698B681D400846B3
:4027C00004F044FD04232370A56038BD38B50C468A698D6895FBF2F302FB1355084604F035FD04232370A56038BD00BF38B591F91030042B14D18869002801DB012400E043
:402800000024002303E08A6802FB04F401338342F9DB0D46084604F019FD04232B70AC6038BD00BF38B50C468D686D42084604F00DFD04232370A56038BD00BF38B50C46AC
:402840008B691F2B0ED88968012202FA03F3194214BF15460025204604F0F8FC04232370A56038BD084604F0F1FC042323700023A36038BD38B50C46D1E902010CF082FC04
:402880000546204604F0E2FC04232370A56038BD70B50C468E68CD6805F10045084604F0D5FC0523237032462B46C4E9022370BD70B58AB00D460023ADF824308B688DF808
:4028C000243004AE012309AA0146304600F014FD96E80F008DE80F00284604F0B7FC9DE80F0085E80F000AB070BD00BF70B58EB004460D46D1E90223CDE900230C4A102122
:402900000AA80DF0E3FA06AE0AAA2146304600F0E3FD02AC96E80F0084E80F00284604F095FC94E80F0085E80F000EB070BD00BF9838020070B50446344B1A68344902F0EB
:402940009FFA0146334D2860334B344A204602F0D5FA334B334A2968204602F0CFFA324B324A2968204602F0C9FA314B314A2968204602F0C3FA304B304A2968204602F07F
:40298000BDFA2F4B2F4A2968204602F0B7FA2E4B2E4A2968204602F0B1FA2D4B2D4A2968204602F0ABFA2C4B2C4A2968204602F0A5FA2B4B2B4A2968204602F09FFA2A4B7A
:4029C0002A4A2968204602F099FA294B294A2968204602F093FA284B284A2968204602F08DFA274B274A2968204602F087FA264E3346264A2968204602F080FA3346244A41
:402A00002968204602F07AFA70BD00BF301000209C380200401000203D2800004C37020025280000A4380200ED270000A8380200CD270000AC380200B5270000B0380200FC
:402A40009D270000B438020085270000B83802006D270000BC380200512700005837020031270000C038020079260000C4380200ED440000C838020011270000D03802000F
:402A8000B1280000D8380200A9260000E43602009436020070B50446164B1A68164902F0EFF90146154D2860154B164A204602F025FA154B154A2968204602F01FFA144B61
:402AC000144A2968204602F019FA134B134A2968204602F013FA124E3346124A2968204602F00CFA3346104A2968204602F006FA70BD00BF30100020DC3802003810002021
:402B000091280000A438020085260000C438020075280000C8380200ED440000D0380200ED280000E4360200943602002DE9F04190B007460D46904600231A4601460CA803
:402B400000F0DAFB0E9B002B38D0002426E01CB11E490CA800F0F6FE34B9AB6804AE08330FCB86E80F0005E0AB6804AE18330FCB86E80F0000230293154B019304AB009340
:402B800043462A46394608A802F086FB08A90CA800F09EFE08A800F0FDFD0134012CD6DD08AC10AB13E90F0084E80F00284604F04DFB94E80F0085E80F0004E0284604F0EE
:402BC00045FB01232B7010B0BDE8F081E4380200E436020038B50C468B68DD78084604F035FB0DB1032300E00223237038BD00BF70B588B00E468B6804AD18330FCB85E8B6
:402C00000F008DE80F00304604F020FB9DE80F0086E80F0008B070BD70B588B00E468B6804AD08330FCB85E80F008DE80F00304604F00CFB9DE80F0086E80F0008B070BDB5
:402C400070B58CB00C4691F9001007291BD104F1100304AE0394012102911D4901910093134622460146304602F016FB08AD96E80F0085E80F00204604F0E8FA95E80F0053
:402C800084E80F0021E0A06804F110063146083004F066F90028D4BF012500250DDCA1681831304604F05CF9A368DB780BB1C50F03E00028CCBF00250125204604F0C6FA9A
:402CC0000DB1032300E0022323700CB070BD00BFE8380200F8B50546084617461E4600232B606B60AB60EB6018232B702821FEF705F8A86088B10446012303801723837048
:402D0000069BC37000F1080E97E80F008EE80F00183496E80F0084E80F002846F8BD00BF10B504468068083004F0C8FAA068183004F0C4FAA068FDF72FFF10BD10B5044682
:402D400000218068FEF716F8A068083004F0D6F9A068183004F0D2F910BD00BF38B504460D46806889680831083004F0F9F860B9A068A9681831183004F0F2F830B9AB6853
:402D8000DB78A268D078181A38BD38BD38BD00BF70B50446164B1A68164902F071F80146154D2860154B164A204602F0A7F8154B154A2968204602F0A1F8144B144A29681B
:402DC000204602F09BF8134B134A2968204602F095F8124E3346124A2968204602F08EF83346104A2968204602F088F870BD00BF30100020F438020044100020412C00007C
:402E0000FC380200192C000098370200F12B0000A0370200D52B0000003902002D2B0000E436020094360200002304E0054AD25C824204D00133062BF8D90020704701208C
:402E4000704700BF1039020070B4024608B1467800E0002600254FF0FF301CE01378012B0DD106E0D418247A8C4200D1E818013300E00023B2F90240A342F3DB07E0137A2A
:402E8000994204DB547AA14201DC6818C01AB2F902301D445268002AE0D136B1002802DA6FF0004001E04FF0FF3070BC704700BF30B400241BE0B0F9025063198B4209DDF5
:402EC000091B0378012B02D10144087A13E0007A084410E0426842B90378012B03D1013D2844007A07E0407A05E01C4610460028E1D14FF0FF3030BC704700BF10B503E0F0
:402F00004468FDF749FE20460028F9D110BD00BF2DE9F04F83B001908B689E689D883AB1012D08DD33785E2B08D00027BB4607E00027BB4604E00027BB4601E00127BB4638
:402F40004FF0000A4EE0BB1CAB421BDA7B1CF35C2D2B17D10A210198FDF7D0FE804678B10223037080F801B0FA18B35CF15D5B1A0133438000234360F35D0372B35C43729B
:402F8000FC1C21E07C1C07E0A31CAB4203DA631CF35C2D2B02D00134AC42F5DBC7EB040909F108010198FDF7A9FE804660B10123037080F801B0A0F80290002343604A46F8
:402FC000F11908300CF09DF9BAF1000F08D0524600E01A465368002BFBD1C2F8048000E0C2462746AF42AEDB504603B0BDE8F08F38B50C468B689B681D78084604F026F93C
:4030000004232370A56038BD38B50C468B689D88084604F01BF904232370A56038BD00BFD0B50C468B6898680CF012F906460F46204604F00BF905232370C4E90267D0BD8E
:4030400070B588B00D468B6804AE9A680146304603F060FD96E80F008DE80F00284604F0F5F89DE80F0085E80F0008B070BD00BF38B522B18B699A1E222A01D938BD0A2324
:403080000C468A681946906804F04EF80546204604F0DCF804232370A56038BD38B5012A04D10C4691F91030172B05D00E220E490120FDF737F938BD8B68988889698A8816
:4030C000824207DC896898680CF00CF9B0FA80F56D0900E00025204604F0B8F80DB1032300E00223237038BDCC36020038B5012A04D10C4691F91030172B05D00E220F4976
:403100000120FDF70FF938BD89688888A3699A88801A08D48D68996828440CF0E3F8B0FA80F56D0900E00025204604F08FF80DB1032300E00223237038BD00BFCC360200F0
:403140002DE9F04F83B0022A09D104468B4691F91030172B03D191F92030172B07D00E2226490120FDF7DEF84FF0FF3043E001221031FFF7CDFE019000283BD000220BF1B1
:4031800020012046FFF7C4FE8046DBF808309D689F880024A2461BE02E19295D0198FFF753FE011E13DBB8F1000F0AD1611C3A1B294430460CF0B0F8013F013C4FF0010A5F
:4031C00005E04046FFF774FE30704FF0010A0134A742E1DC0198FFF791FE4046FFF78EFEDBF808309F80DBF808309B680022DA55504600E0002003B0BDE8F08FCC36020017
:4032000010B50C46FFF79CFF20B9204604F01EF80123237010BD00BF2DE9F84F0C46022A0CD191F91030042B08D191F92030172B04D18D6901F1200A012619E0032A10D19F
:4032400094F91030042B0CD194F92030042B08D194F93030172B04D1A569A66A04F1300A06E00C2222490120FDF75CF8BDE8F88FA3689F88DAF80820B2F80490002D00DABA
:403280003D44C5EB0708464500DD4646002D03DBBD4201DC002E06DA0B2216490120FDF741F8BDE8F88F07EB0902921B01329968FDF732FD8346C0B105EB09007119C6EB70
:4032C00008020132594458440CF026F8DAF808304A4699680BEB05000CF013F8A3684F44BE1B9E80A368C3F808B0BDE8F88F00BF18390200283902002DE9F04104460F4607
:4033000090461E460023036043608360C360172303700C213846FDF7F1FCE8B10546711C3846FDF7EBFC074618B92846FDF734FC12E001232B801723AB70AE80A860B8F17C
:40334000000F02D10023037005E0324641460BF0D8FF0023BB55A5602046BDE8F08100BF30B589B00C46012A34D191F91030042B30D189688A88A369002B04DB9A4207DD39
:403380008A68D55C09E0D31805D48A68D55C04E04FF0FF3501E04FF0FF35002D4EDB0123002201466846FFF7A7FF029B002B45D09A6815709B6800225A7004AD9DE80F00AA
:4033C00085E80F00204603F041FF95E80F0084E80F0038E0022A2BD194F91030042B27D194F92030042B23D1A568AB88A269002A00DA1A44002A21DB9B1AA16A8B42A8BFB6
:403400000B46002B1ADBA9680A4401466846FFF773FF029B93B104AD9DE80F0085E80F00204603F013FF95E80F0084E80F000AE0242206490120FCF775FF04E0204603F007
:4034400005FF0123237009B030BD00BF3439020070B588B091F91030042B05D00A221C490120FCF75FFF30E00C468B69002B03DA184802F039F928E08A68928802FB03F3A6
:403480000022014604A8FFF737FF069BEBB19D68002609E0A3689A88996828460BF031FFA3689B881D440136A3699E42F2DB00232B7008AB13E90F008DE80F00204603F0DB
:4034C000C5FE9DE80F0084E80F0008B070BD00BF9C360200CC36020070B504460E46154622B110460CF044FD034600E000232A4631462046FFF700FF204670BD70B504466A
:40350000084615461E46002323606360A360E360172323700C21FDF7F1FB30B1012202801722827086808560A060204670BD00BF2DE9F04794B091F91030172B03D08B48C4
:4035400002F0D2F80EE182460F4691462021FDF7D5FB0346002800F00581BA6992680D900F901F330E931092002311931293139302264FF020086C460DAD0FCD0FC495E899
:40358000070084E807000DA801F02CFF0246002800F0CC800028C0F2BB804E4505DD0E2273490120FCF7BEFEC0E09DF84430423B362B00F29D80DFE803F06C9B9B849B8439
:4035C0009B9B9B9B9B9B9B9B9B9B9B9B9B9B9B9B789B9B9B9B9B9B9B9B9B6C1C468484849B469B9B9B9B9B9B9B9B9B279B469B9B78003301F918FB56042B79D189680DA817
:4036000001F066FF024673E03301F918FB56172B08D1896820238A8889680DA801F08AFF024665E0062B63D1B1F9080003F0B0FA04460CF09DFC2023024621460DA801F0CA
:4036400079FF024654E03301F918FB56042B06D10A2289680DA801F0B3FF024648E0052B0AD1D1E902010BF08DFD0A2201460DA801F0A6FF02463BE0172B39D18B68986828
:403680000BF0EDFD0A2201460DA801F099FF02462EE03301F918FB56042B29D1022289680DA801F08DFF024622E03301F918FB56042B1DD1102289680DA801F081FF02468A
:4036C00016E03301F918FB56052B06D1D1E902230DA801F0E1FF02460AE0042B08D188680BF03AFA02460B460DA801F0D5FF0246002A01DB01363EE7129B202B00DD98440B
:403700000DAC6D460FCD0FC495E8070084E8070008F1200842460D995046FDF7FDFA014600B342460DA802F073F824E700220F9B1A700D990F9C641A621C5046FDF7ECFAF5
:4037400008AD23460D9A51462846FFF7D7FE95E80F008DE80F00384603F078FD9DE80F0087E80F0014B0BDE8F08700BF9C360200CC36020010B50C46FFF7DAFEA3689A8823
:4037800099680120FCF7CEFD204603F05FFD0123237010BD10B5044683689868FDF7FCF9A068FDF7F9F910BD10B5044600218068FDF7E0FAA36800219868FDF7DBFA10BDAA
:4037C00038B505469468A3880022FFF795FDAB682BB1A2880132A16898680BF092FD284638BD00BF2DE9F04188B007460D46904604AE0A4601463046FFF7E2FF96E80F00A7
:403800008DE80F00284603F021FD9DE80F0085E80F00424629463846FFF792FC08B0BDE8F08100BF70B588B00D4604AE0A4601463046FFF7C5FF96E80F008DE80F00284647
:4038400003F004FD9DE80F0085E80F0008B070BDF8B5074694689D68A288AB8813440022FFF74AFDBE6866B1A288A168B0680BF048FDB068A388AA880132A96818440BF079
:4038800040FD3846F8BD00BF70B588B091F91030172B05D01B220D490120FCF743FD13E00C4604AE01F110030A4601463046FFF7CFFF96E80F008DE80F00204603F0C6FCBB
:4038C0009DE80F0084E80F0008B070BD5C3902002DE9F04105460E4683689F8891F90020172A02D18A68948800E00124E11901319868FDF77DF98046D0B196F90030172B96
:4039000006D1B368621C996838440BF0FAFC06E0042B04D1B368C3557B1C0022C254AB683C449C80AB68C3F808800020BDE8F0810120BDE8F08100BF08B508461031FFF74A
:40394000C7FF08BD2DE9F041054688468768BE8808460CF00DFB044631180131B868FDF747F968B10746621C414630440BF0C9FCAB6834449C80AB689F600020BDE8F0812E
:403980000120BDE8F08100BF70B58CB00D4647F65C03099300240A94ADF82C401D4A014604A8FFF799FDAB689E681CE0335DA3F12002D2B25E2A0FD91B09174AD35C8DF8E4
:4039C0002630335D03F00F03D35C8DF8273009A904A8FFF7B7FF05E00CA901F8093D04A8FFF7B0FF0134AB689B889C42DEDB04AE08493046FFF7A6FF96E80F008DE80F0076
:403A0000284603F023FC9DE80F0085E80F000CB070BD00BF283B0200783902002DE9F0418368D3F8088008EB020589688F689B888E889B1B9C1A0BE03246394628460BF0DF
:403A400051FC18B9C8EB0500BDE8F081013C0135002CF1DA4FF0FF30BDE8F08138B5012A04D10C4691F91030172B05D00E220A490120FCF757FC38BD002210312046FFF7AE
:403A8000CDFF0546204603F0E1FB002D01DB032300E00223237038BDCC3602002DE9F04F93B001900E469346002201460EA8FDF73BFAB3689B88002B00F0D780BBF1010FF0
:403AC00016DD96F92030042B05D00A226F490120FCF728FCD6E0D6F82880B8F1010F09D131460EA8FDF764FC304603F0E5FABCE04FF00008BBF1000F05D1654A01990AA8DD
:403B0000FFF7EAFC05E00AAC06F110030FCB84E80F009DF92830012B02D0172B12D00BE002AC5B4A01992046FFF7D6FC0AAD94E80F0085E80F0005E00A2254490120FCF719
:403B4000F1FB9FE00C9B9A681278202A05D19A88012A05D14FF0010904E04FF0000901E04FF00009B3F804A0BAF1000F01D10AF1010A0024B9F1000F06D10BE09B68185DCE
:403B8000FFF752F920B10134B3689D88AC42F5DBAC4248DCB8F1000F04DD109BDB880133984525DDB9F1000F07D10DE09B68585DFFF73AF930B9013500E02546B3689A88EE
:403BC0009542F3DB2F1B18E00C9B9B8843B9B3689B88013B9C420EDB01274FF0FF350CE022460AA93046FFF719FF0546071B04E04FF0FF3501E025460127002D02DAB36855
:403C00009F883F1BB3689A683B462244019906A8FFF772FB06A90EA8FDF7CAFB002D02DB05EB0A04A6E7B8F1000F14D1109BDA88541E10D422460EA906A8FDF715FB089B2D
:403C40009B8843B922460EA902A8FDF715FD06A8FFF7A0FDEAE7BBF1000F03D096F91030012B02D10AA8FFF795FD06AC12AB13E90F0084E80F00304603F0E8FA94E80F00E3
:403C800086E80F0013B0BDE8F08F00BF9C3602008C39020038B50C46012A0ED0022A1BD191F92030042B17D18A6A002A02DA8B689B881A44002A01DA0EE0002204F110016C
:403CC0002046FFF7ABFE051E06DB204603F0BEFA04232370A56038BD204603F0B7FA0123237038BD2DE9F8438046894683689E689F887C1E344411F0010F08D1354609E0E2
:403D0000287838B1FFF790F820B1013500E03546A542F5D919F0020F05D106E02078FFF783F810B1013CA542F8D9641B04F101094F4514D0B54204D04A46294630460BF09F
:403D4000EBFA002306F80930A11C3046FCF750FFD8F80830A3F804900120BDE8F8830020BDE8F88330B585B00C4603212046FFF7B9FF70B900230093019302930393012371
:403D80008DF80030204603F061FA9DE80F0084E80F0005B030BD00BF70B588B00D4604AE0A4601463046FFF70BFD03213046FFF799FF96E80F008DE80F00284603F046FAE3
:403DC0009DE80F0085E80F0008B070BD30B585B00C4602212046FFF785FF70B90023009301930293039301238DF80030204603F02DFA9DE80F0084E80F0005B030BD00BFF8
:403E000070B588B00D4604AE0A4601463046FFF7D7FC02213046FFF765FF96E80F008DE80F00284603F012FA9DE80F0085E80F0008B070BD30B585B00C4601212046FFF7FA
:403E400051FF70B90023009301930293039301238DF80030204603F0F9F99DE80F0084E80F0005B030BD00BF70B588B00D4604AE0A4601463046FFF7A3FC01213046FFF72E
:403E800031FF96E80F008DE80F00284603F0DEF99DE80F0085E80F0008B070BD10B483689A6899884C1E1319145D0A2C00D1013B1C780D2C00D1013B9B1A0133994205D005
:403EC0000021D15482689380012000E0002010BC704700BF30B585B00C460846FFF7DEFF70B90023009301930293039301238DF80030204603F0AAF99DE80F0084E80F000D
:403F000005B030BD70B588B00D4604AE0A4601463046FFF755FC3046FFF7C0FF96E80F008DE80F00284603F091F99DE80F0085E80F0008B070BD00BFF8B50446644E32680B
:403F4000644900F09DFF0146634D2860634B644A204600F0D3FF634B634A2968204600F0CDFF624F3B46624A2968204600F0C6FF3B46604A2968204600F0C0FF5E4B5F4A4A
:403F80002968204600F0BAFF5D4B5E4A2968204600F0B4FF5C4B5D4A2968204600F0AEFF5B4B5C4A2968204600F0A8FF5A4B5B4A2968204600F0A2FF594B5A4A29682046AA
:403FC00000F09CFF584B594A2968204600F096FF574B584A2968204600F090FF564B574A2968204600F08AFF554B564A2968204600F084FF544B554A2968204600F07EFFBC
:40400000534B544A2968204600F078FF524B534A2968204600F072FF514B524A2968204600F06CFF504B514A2968204600F066FF4F4B504A2968204600F060FF4E4B4F4A9C
:404040002968204600F05AFF4D4B4E4A2968204600F054FF4C4F3B464C4A2968204600F04DFF3B464A4A2968204600F047FF494B494A2968204600F041FF484B484A29686B
:40408000204600F03BFF474B474A2968204600F035FF464B464A2968204600F02FFF454B454A2968204600F029FF444B444A2968204600F023FF434B434A3168204600F09E
:4040C0001DFF424B424A3168204600F017FFF8BD3010002090390200201000208938000048370200513400009839020009300000783702008037020071300000C838020076
:40410000ED440000943602003939000058370200613300004C3702001932000054370200053F00009C390200D53E0000A439020025380000C4370200953C0000903702008D
:4041400089390000E4360200F12F0000AC3902009D3A0000B0390200693E0000B8390200353E0000C0390200013E0000C8390200CD3D0000D0390200993D0000D839020050
:40418000653D0000E039020041300000E8390200F0390200E5370000F839020001320000FC3902009D300000003A0200ED3000000C3A02005D3A0000183A02002130000020
:4041C000D038020031350000243A0200753700002C3A020008B5024802F05EFD08BD00BF600F002008B5024802F076FD08BD00BF600F002008B58B68D86802F0D9FD08BD78
:4042000008B58B68D86802F0CDFD08BD08B591F91030172B02D18B699A6800E0002222B18B681146D86802F019FE08BD2DE9F0418CB006460D468B68DC68204602F05CFE43
:4042400068B904AB0022049205920692079201228DF810200FCB0CAC04E90F001FE0204602F036FE00F1010841463046FCF746FD074642460146204602F0FCFD8046024655
:4042800039463046FCF748FD43463A4631466846FFF734F99DE80F000CAC04E90F0004AC0CAB13E90F0084E80F00284602F0CEFF94E80F0085E80F000CB0BDE8F08100BF86
:4042C00038B50C468B68D86891F91030172B0CD18B699A88996802F075FD0546204602F0B5FF04232370A56038BD084602F0AEFF0123237038BD00BF2DE9F0418CB00746B5
:404300000D468B68DE688C69304602F0E1FD84420DDD04AB0022049205920692079201228DF810200FCB0CAC04E90F0014E0611C3846FCF7E3FC804622460146304602F0D3
:4043400067FD2346424639466846FFF7D7F89DE80F000CAC04E90F0004AC0CAB13E90F0084E80F00284602F071FF94E80F0085E80F000CB0BDE8F08130B58DB00D46144B44
:404380001B68002B0FDD04AB0022049205920692079201228DF8102008AC0FCB84E80F0085E80F0012E001460423AA68684602F01DFF9DE80F0085E80F0005490B68581C64
:4043C00008600449B42000FB0313D3600DB030BD50FBFF1F600F002010B588B0264B0693264B0593264B0493264B0393264B0293264B0193264B0093264B202201212648DD
:4044000002F0A0FC254806F047FD254806F06CFD244B1A682449002000F032FD0446234B234A0146002000F069FD224B224A2146002000F063FD214B214A2146002000F0FE
:404440005DFD204B204A2146002000F057FD1F4B1F4A2146002000F051FD1E4B1E4A2146002000F04BFD1D4B1D4A2146002000F045FD08B010BD00BF95AD0000D5AD00008A
:40448000A1AD0000E9AD0000B1AD0000F5AD000059AD00003DAD0000600F0020D5410000E541000030100020343A020079430000A0340200F9420000B8340200C1420000CF
:4044C000A43402002D4200003C3A02000D420000443A0200014200004C3A0200F54100005C3A020003230B70704700BF704700BF38B504460D46114602F04EFF002323821E
:40450000AB68DB68E360C4F8585638BD30B585B00D46054A01466846FEF7DEFF9DE80F0085E80F0005B030BD803A020030B585B00D46054A01466846FEF7CEFF9DE80F008B
:4045400085E80F0005B030BD843A020030B585B00D46054A01466846FEF7BEFF9DE80F0085E80F0005B030BD8C3A020010B50C46084602F06BFE0223237010BD70B594B0D2
:4045800006460C460CAB059307930DF14F030693104B0893002309930A930B9304E01022A16805A801F00CF805A800F01BFF0028F5DC0022079B1A700CAA31466846FEF70C
:4045C0008BFF204602F042FE9DE80F0084E80F0014B070BD943A020070B590B006460C4691F90030072B02D0142B07D039E08B68B3F9000002F0CCFA024633E008AB0093E1
:4046000002930DF13F0301931D4B039300230493059306931BE09DF81030732B02D0782B10D014E0A3685B68B3F9000002F0B0FA05460BF09DFC202302462946684600F0E4
:4046400079FF04E01022A168684600F0B9FF684600F0C8FE0028DEDC0022029B1A7008AA00E0084A31466846FEF736FF204602F0EDFD9DE80F0084E80F0010B070BD00BF8E
:40468000A43A0200003E020038B50C4691F91030072B05D18969204602F0FEFC054600E00025204602F0D2FD0DB1032300E00223237038BD70B504460D4602F057FE064648
:4046C0000BF056FC01462046FCF718FBA8B1044631460BF045FC30460BF04AFC013800232354204602F042FA05F110020146284602F0ECFD2046FCF74FFA70BD70B588B082
:404700000D4602F033FE02F031FA04AE02462946304602F0E9FD96E80F008DE80F00284602F094FD9DE80F0085E80F0008B070BD2DE9F04397B004460D46904612AF002351
:404740008A680146384602F051FD0DAEDFF8C4E0BEE80F000FC6DEF80030337001238DF8373000268DF836608DF835608DF834608DF838600A238DF839304FEAC83303F4F2
:404780007C1343EAC87343F000530B934FF0A0430C93ADF81060ADF81260ADF814600223ADF81630ADF818600BAB079308960DAB09930A96284602F081FD97E80F0085E8F0
:4047C0000F00384602F078FCD4F80C80B4F81090D4F85876268204ABE360C4F85856204602F0B0FE0028FAD0A4F81090C4F80C80C4F8587616AB13E90F008DE80F002846C0
:4048000002F024FD9DE80F0085E80F0017B0BDE8F08300BFB03A020038B50C4691F90030072B06D1896804F1100002F035FC054606E01031204602F093FBB0FA80F56D09C3
:40484000204602F003FD0DB1032300E00223237038BD00BF38B50C461031204602F080FB0546204602F0F2FC04232370A56038BD38B50C461031204602F072FB0546204622
:4048800002F0E4FC0DB1032300E00223237038BD70B50D468B689C6805E0B4F90420AB6A9A4202D0A468002CF7D144B9B5F9280002F06EF901460D4800F016FF70BD1021A2
:4048C0000020FCF71BFA034670B126686068A168E2681E6058609960DA60AA699A80AA6892689A60AA68936070BD00BFC43A020030B585B00D4600231A4601466846FEF716
:40490000FBFC9DE80F0085E80F0005B030BD00BF00B5ADF2746D684602F056FD0849684601F0EAFA684602F0DDFD684602F00AFE684602F0FFFD0DF2746D5DF804FB00BF62
:40494000243E020091F90030013B182B34D8DFE803F013100D16191C223333333333333333333333331F24272A2D3000144B18687047144B18687047134B18687047134BC3
:4049800018687047124B18687047124B186870478B6858687047886870470F4B186870470E4B186870470E4B186870470D4B186870470D4B186870470C4B1868704700BF6B
:4049C00018100020241000203410002040100020381000202C100020141000202810002020100020441000201C1000203010002070B588B00E4604AD002304930593079329
:404A000007238DF81030FFF79DFF069095E80F008DE80F00304602F019FC9DE80F0086E80F0008B070BD00BF70B58CB0044690F90010192900F20681DFE811F01A00090132
:404A4000210028002F0035003C004A00040104010401040104010401040104010401040104010401590068006E009500A600CB0007227A490120FBF755FC0020ECE005222F
:404A800077490120FBF74EFC0020E5E0042275490120FBF747FC0020DEE08168724800F023FE0020D8E0D0E90223704800F01CFE0020D1E0B0F9080002F06AF804460BF095
:404AC00057FA024621460120FBF72CFC0020C3E08368B3F9000002F05BF804460BF048FA024621460120FBF71DFC0020B4E001460020FFF727FFB0F9000002F049F8A2685D
:404B000001465B4800F0F0FD0020A5E08168594800F0EAFD00209FE00CA95B2301F82E3D01221046FBF7FEFB00250EE025B1022251490120FBF7F6FB2A46214604A8FCF7ED
:404B400093FB04A800F0B0F80135A368DB889D42ECDB0CA95D2301F82C3D01221046FBF7E1FB002078E083689A8899680120FBF7D9FBA2689388002B6BD09268013BD35CDE
:404B80000A2B68D0002067E0836804AD08330FCB85E80F002846FFF747FFA368DB780BB1364D00E0364D28460BF0E2F9024629460120FBF7B7FBA36808AC18330FCB84E83A
:404BC0000F0004AD85E80F002846FFF72DFF002042E00CA97B2301F82D3D01221046FBF7A1FBA268049293680593D68803EB0616069601AB04AA07CA83E8070015E004F12C
:404C000020050295204600F04FF802221D490120FBF788FB04F1100000F046F8AE4204D9022215490120FBF77DFB029CB442E6D30CA97D2301F8203D01221046FBF772FB1E
:404C4000002009E0104800F04FFD002004E0002002E0002000E001200CB070BDEC3A0200843A02008C3A0200F43A020098380200A43A0200F83A0200E0360200E83A020085
:404C8000E4380200E4370200083B020070B50E461546012404E006EB0410FFF7C5FE0134AC42F8DD70BD00BF70B58AB0054690F90030013B172B73D8DFE803F00C727272AD
:404CC000721272727272727272727272727272727272224E032235490120FBF723FB61E0B0F9080001F054FF04463A210BF020F908B12F4800E02F48214600F0F5FC51E0DD
:404D00000AA9222301F8223D01221046FBF70AFBAB689E68002412E0325DA2F12003DBB25E2B04D91146244800F0DEFC06E00AA901F8212D01221046FBF7F4FA0134AB683E
:404D40009B889C42E8DB0AA9222301F8203D01221046FBF7E7FA25E0836802AC08330FCB84E80F002046FFF79FFFAB68DB780BB1124C00E0124C20460BF0FAF802462146ED
:404D80000120FBF7CFFAAB6806AC18330FCB84E80F0002AD85E80F002846FFF785FF01E0FFF742FE00200AB070BD00BF803A0200243B02002C3B0200303B0200E83A0200AB
:404DC000E438020030B587B0054690F90030162B1AD112E03CB106A90A2301F8113D01221046FBF79FFA2246294602A8FCF73CFA02A8FFF7E7FF013400E00024AB68DB8864
:404E00009C42E7DB002001E0FFF70EFE07B030BD70B582B07AB914E006EB0410FFF7D2FF38B902A90A2301F8023D01221046FBF779FA013402E00E4615460124AC42EBDD61
:404E400007E002A90A2301F8013D01221046FBF769FA02B070BD00BF10B51446FFF772FD09E0836804E0B3F90420A24206D09B68002BF8D140680028F3D110BD184610BD87
:404E800070B588B016460AB9184B1E68084601F06DFE0546014604A800F08EFD9DF91030012B16D10C210020FBF728FF044670B10580466000238360009301930393072358
:404EC0008DF8003002906946284600F017FD20460AE0072B01D1069806E0054B054A40F2311105480AF096F908B070BD30100020383B02006C3A0200483B020038B51D4652
:404F00000C4609B9064B1C68114602F017F8C37843F00103C370A3688360A060C56038BD3010002070B5044600223449FFF7A8FF0146334D2860334B334A2046FFF7DEFFF5
:404F4000324B334A29682046FFF7D8FF314B324A29682046FFF7D2FF304B314A29682046FFF7CCFF2F4B304A29682046FFF7C6FF2E4B2F4A29682046FFF7C0FF2D4B2E4ADB
:404F800029682046FFF7BAFF2C4B2D4A29682046FFF7B4FF2B4B2C4A29682046FFF7AEFF2A4B2B4A29682046FFF7A8FF294B2A4A29682046FFF7A2FF284B294A2968204666
:404FC000FFF79CFF274E3346274A29682046FFF795FF3346254A29682046FFF78FFF244E3346244A29682046FFF788FF3346224A29682046FFF782FF70BD00BF503B020044
:4050000030100020ED440000583B020091480000643B0200114E0000443A02008D4C0000743B02006D4500007C3B020071480000803B020055480000843B020019480000C7
:40504000FC380200F1490000883B020031470000A034020005510000903B02007D5000009C3B020089460000AC3B0200E8380200D9450000E4360200943602002DE9F043BB
:4050800085B080460D461646012430E02301EA18EB56062B2AD1B2F9080001F079FD8146154B0246A9684046FFF728FF48460AF05FFF811C4046FBF721FE0746C8B14946D2
:4050C0000AF04EFF38460AF053FF0C4B1B883B523A464146684601F01DFD094B3A46A9684046FFF70BFF3846FBF756FD0134B442CCDD05B0BDE8F083FD460000B43B020055
:40510000B5460000F8B507460D46164601240FE02301EA18EB56062B09D1B2F9080001F037FD054B0246A9683846FFF7E7FE0134B442EDDDF8BD00BFFD46000038B5044688
:405140000C4B1A680C49FFF79BFE01460B4D28600B4B0C4A2046FFF7D1FE0B4B0B4A29682046FFF7CBFE0A4B0A4A29682046FFF7C5FE38BD30100020B83B0200341000200C
:40518000E54400007C3B02000D450000E4360200F14800009436020070B504460D4B1A680D49FFF76DFE01460C4D28600C4B0D4A2046FFF7A3FE0C4E33460C4A29682046A7
:4051C000FFF79CFE33460A4A29682046FFF796FE70BD00BF30100020C43B020014100020F1440000CC3B02007D450000E43602009436020070B504460D4B1A680D49FFF7C3
:405200003FFE01460C4D28600C4B0D4A2046FFF775FE0C4E33460C4A29682046FFF76EFE33460A4A29682046FFF768FE70BD00BF30100020D43B020024100020E544000010
:405240007C3B02002D450000E43602009436020070B504460A4B1A680A49FFF711FE0146094D2860094E3346094A2046FFF746FE3346084A29682046FFF740FE70BD00BFB3
:4052800030100020E03B0200181000204D450000E4360200943602002DE9F04F87B08046894616461C46129F119801F05FFC024610994846FFF7D0FD38B9119A109B93F915
:4052C0000010324800F010FA4FE08246C37813F0010F04D111992E4800F006FA45E0023406EB0416304601F0E9FF109B0FCB86E80F00109801F0E0FE13AB059301240CE06B
:4053000006EB0415284601F0D9FF059B1A1D059219680FC985E80F000134BC42F0DD4FEA041B06EB0B05284601F0C8FF002346F80B306B60AB60EB60012306F80B30DAF87E
:405340000C303A4631464846984796E80F008DE80F0003E023010022F254013C002CF9DA9DE80F0088E80F000BE00023C8F80030C8F80430C8F80830C8F80C30012388F834
:405380000030404607B0BDE8F08F00BFEC3B0200103C020008B50020FFF7C4FD0020FFF7CDFE0020FFF7F8FE0020FFF723FF0020FFF74EFF0020FDF7BDFA002001F02AFC08
:4053C0000020FDF767FB0020FEF7B6FD0020FCF77DFA0020FDF7DCFC0020FCF7CDFEFFF797FA08BD30B400230361436183614FF0FF350BE04C1CC460252B04D149782529BE
:4054000035D10134C460511C81601370826843689A4204D2C1680B781D46002BEAD1281C18BF0120404251E0203B102B2CD8DFE803F00E2B2B2B2B2B2B2B2B2B2B092B13BA
:405440002B2B1800437C43F0010343740DE0437C43F00403437408E0437C43F00203437403E0437C43F0080343740132C260C2681378002BD8D107E0436903EB8303590009
:40548000214441610132C260C2681378A3F13004092CF1D92E2B0FD10132C26007E0836903EB83035C00224482610131C160C1680A78303A092AF2D9C3681A782AB15A1C26
:4054C000C2601B780374012000E0012030BC704710B4437C13F0020F06D08368426893421CD05A1C82601970426907E083684468A34216D05C1C846020241C70013A002A92
:40550000F4DC437C13F0020F0ED18368426893420CD05A1C82601970002009E04FF0FF3006E04FF0FF3003E0002001E04FF0FF3010BC7047F0B40C4609B906221F4C8169ED
:4055400011B18A4200DD0A4641698A4200DB114645688668AD1BAA4201DC002702E02A464FF0FF37A94202DD29464FF0FF37891A457C15F0020F05D010E081684E1C866088
:405580000B7029464D1E0029F7DC294606E08268561C8660267816702A460134551E002AF5DC04E08268511C8160137021464C1E0029F7DC3846F0BC704700BF303C020052
:4055C00070B58AB00C46037C642B01D0692B0DD1002902DA4C422D260DE0417C11F0010F06D111F0040F05D1002604E0002602E02B2600E02026417C11F0020F01D1416973
:4056000019B9417C6FF3C301417400218161582B01D1372100E057210AAD002305F8033DB4FBF2F302FB1343013D092B02DC3033DBB201E00B44DBB22B70B4FBF2F4002CA1
:40564000EED1437C13F0080F0DD096B183685A1C82601E70826843689A4218D24369013B4361302608E036B105F8016C013D202602E0302600E02026044628460AF078FC1F
:405680003346024629462046FFF754FF01E04FF0FF300AB070BD00BFD0B586B0044616461F46C16806AA002302F8013D11F8013D02F8013D252BF9D16168A068091ACDE9D9
:4056C000006701310AF002FC01E00133A360A3681A78002AF9D1606883424FF0FF3018BF002006B0D0BD00BF0FB410B59EB020AB53F8042B1D9301AB169318930DF155035B
:405700001793199200231A931B931C9316A8FFF769FE0446189B169A9A1A05D001A90120FAF700FE169B1893002C6CD0002CEDDBECDD9DF86830423B362B5AD8DFE803F064
:405740003B59594D594D59595959595959595959595959595959445959595959595959593B1C324D4D4D5932595959595959595959245932595944001D9B1A1D1D92196874
:4057800016A8FFF7A5FE34E01D9B1A1D1D921C6820460AF0EDFB20230246214616A8FFF7C9FE26E01D9B1A1D1D920A22196816A8FFF706FF1DE01D9B1A1D1D92022219685D
:4057C00016A8FFF7FDFE14E01D9B1A1D1D921022196816A8FFF7F4FE0BE01D9B073323F0070303F108021D92D3E9002316A8FFF753FF169B189AD21A01A90120FAF792FDE9
:40580000169B189382E71EB0BDE8104004B0704710B4836804681B1B0160013A0A4442600B44836010BC704710B4002310E003EB4304E2000C4C2244B2F90220824206D1CF
:4058400003EB4304E200084CA25C8A4208D00133054AD2F8B0249342E9DB4FF0FF3000E0184610BC704700BF58FBFF1F0022024BC3F8B024704700BF58FBFF1F82B070B5C6
:40588000054604A981E80C000121FFF7CDFFB0F1FF3F0DD1154BD3F8B044621CC3F8B024312C0EDD124B134A3B21134809F0B2FC044600EB4003D80008300C4B184401F022
:4058C000FDFC0A4A61000819C300D0180126D65445800446083404AB0FCB84E80F0004A801F0EAFBBDE8704002B0704758FBFF1F603C0200383C0200803C0200F8B5064612
:405900000D460221FFF790FFB0F1FF3F0DD1144BD3F8B044621CC3F8B024312C0EDD114B114A4F21114809F075FC044600EB4003D80008300A4B184401F0C0FC084A6100B9
:405940000819C300D0180227D75446800446083495E80F0084E80F00284601F0ADFBF8BD58FBFF1F603C02004C3C0200803C0200F8B5044608460121FFF756FF051E0FDBE2
:405980000C4E6F007B19D8000830304401F094FB3D44EB00334408330FCB84E80F0006E0002323606360A360E360012323702046F8BD00BF58FBFF1FF0B585B0044608460A
:4059C0000221FFF731FF051E0FDB0F4E6F007B19D8000830304401F06FFB3D44EB00334408330FCB84E80F000BE00022009201920292039201228DF800209DE80F0084E87C
:405A00000F00204605B0F0BD58FBFF1F10B5002408E004EB4403D8000830054B184401F06DFB0134024BD3F8B0349C42F1DB10BD58FBFF1F4288013A14D4F0B400260DE045
:405A4000B31803EBD3735B10476803EB4305EC003C5F8C4201DA5E1C00E01A469642EFDB304602E04FF0FF307047F0BC704700BF70B506460D460821FBF740F990B1044609
:405A800005EB4503D9003046FBF738F9606020B92046FBF781F8002070BD258000236380204670BD002070BD38B505460C4601EB4103D9004068FBF79BF818B168602C80FD
:405AC000002038BD012038BD2DE9F041054688461646FFF7AFFF041E18DB6B6804EB4402D700D819DB5F98450CD1083001F0AEFB6B681F44083796E80F0087E80F000020D0
:405B0000BDE8F081984502DD013400E000246B8829888B4204D305312846FFF7C5FF28BB6B889C420FDA1B1B03EB4303DA006F68631C03EB4303D80004EB4403D9003944E5
:405B4000384409F0E9FB6A6804EB4404E30022F803806C681C44083496E80F0084E80F006B8801336B800020BDE8F0810120BDE8F08100BF38B505460C46FFF75BFF00288B
:405B800009DB6A6800EB4000C300D018D35E9C4203D1083038BD002038BD002038BD00BF70B506464468438803EB4303DD00254404E004F1080001F049FB1834AC42F8D3E3
:405BC0000023738070BD00BF10B50446FFF7E8FF6068FAF7E1FF2046FAF7DEFF10BD00BF10B40C6863681A0202F47F0242EA03601A0A02F47F42024342EA136323440B60A5
:405C0000002010BC704700BF70B506460D460C6808221549204609F065FB28B1134BC6F864364FF0FF331CE00422114904F10E0009F058FB28B10F4BC6F864364FF0FF33BC
:405C40000FE004220C4904F1120009F04BFB034628B1064BC6F864364FF0FF3301E016342C60184670BD00BF943C020002000101A03C020004000101A83C02002DE9F04F42
:405C800083B000AF834679600C68002001F07AFA18B96C4BCBF86436D0E08246A288130A43EA02230380E288130A43EA0223438021890B0A43EA012189B28180D4F80A0032
:405CC000020202F47F0242EA0062030A03F47F43134343EA1063AAF806300E34DBF808502D1B05F00305254451B189000020FBF705F8CAF8180018B9524BCBF864369DE030
:405D0000CAF80C50BAF8063005EB830455F823100B0203F47F0343EA01620B0A03F47F43134343EA116189B2AAF80810043431B189000020FAF7E2FFCAF8100008B1002652
:405D40005CE0404BCBF86436002077E094F80090B4F801502B0A43EA0525ADB203340021084601F0E1F8804618B9364BCBF8643664E0B9F1010F0AD0B9F1000F03D0B9F191
:405D8000020F1DD034E017230370846030E0E94605F1080323F00703ADEB030D2A462146684609F0AEFA00230DF80530042388F80030684609F053FAC8F80800CD4617E01B
:405DC000E94605F1080323F00703ADEB030D2A462146684609F095FA00230DF80530052388F80030684609F033FAC8E90201CD46DAF8103043F826802C440136BAF808304D
:405E00009E42A3DBCAF8144054F8041B0B0203F47F0343EA01620B0A03F47F43134343EA116206E021880B0A43EA01239BB203331C44013AF6D57B681C6050460C37BD4690
:405E4000BDE8F08F030002012DE9F04107468846FFF714FF80B10546002407E0AE6941463846FFF7F1FF46F824000134AB889C42F4DB2846BDE8F0810020BDE8F08100BF14
:405E80002DE9F04182B006460D460B681C1D01945F68390201F47F0141EA07613A0A02F47F4241EA020343EA17670434019404220F49204609F016FA28B10E4BC6F8643665
:405EC0004FF0FF380FE08046043402A941F8044D3046FFF7B9FF306018B12B683B442B6001E04FF0FF38404602B0BDE8F08100BFA83C02000200020170B582B0064602AB51
:405F000043F8041D81601946FFF77EFE05461EE0019C04221049204609F0E4F928B901A93046FFF7ADFF054611E004220B49204609F0D8F928B901A93046FFF751FE054698
:405F400005E004220649204609F0CCF908B1002DDED0284602B070BDB03C0200B83C02008C3C0200034BC3F88430002283F88120704700BF0C000020014B93F88100704768
:405F80000C000020024BD3F88400C01A704700BF0C000020004870470C00002010B5044605F0E0FD0028FBD0204605F065FD10BD38B505460C460DE005F0D4FD0028FBD0E4
:405FC0002146402CA8BF402189B2284605F02CFD4035403C002CEFDC3CB905F0C3FD0028FBD00021084605F01FFD38BD38B505F0A7FB30B105F09EFB88B305F0C9FC01203C
:4060000038BD05F097FB60B305F0A0FD60B305F083FD0546FFF7B6FFC0F18004A54200DC2C46A1B2114BD3F8840005F0A7FD0DE00E4AD2F88430591CC2F884101B780A2B72
:4060400003D10122094B83F88120013C002CEFD1064BD3F8843000221A70022038BD012038BD4FF0FF3038BD002038BD0C0000202DE9F047804689460E4624E0FFF782FF92
:40608000024620B9FFF7B2FF00281CDA20E0864201DD054600E03546541BAA462A460E49404609F02EF9002C09DD0B4F22467919384609F031F93A19C7F8842001E0FFF74E
:4060C00051FFD044761B002ED8DC4846BDE8F0870020BDE8F08700BF0C000020244BD3F88820032A3FDC30B5C3B00446214B1B68034421498B4238D81AB900230093019392
:4061000004E01E496B460868496803C32DF8124008221A49684606F0A5FCC0B1FEE7FF2C01D8214601E04FF4807102A8FFF7A0FF054602460F4B196802A806F093FC00B1D0
:40614000FEE7641BA4B20B4B1A6815441D60002CE5D1FFF707FF064AD2F888300133C2F88830002002E001207047022043B030BD0C000020CC80FF1F983402009834010054
:4061800010B5FFF733FFFFF7F7FE0028F9D0FFF701FF36490AF020FD044618B93448FFF7FDFE5FE0334909F0D1FE48B93248FFF7F5FE3248FFF7F2FE3148FFF7EFFE51E02E
:4061C0003049204609F0C2FE18B92F48FFF7E6FE48E02E49204609F0B9FE38B92648FFF7DDFE642003F00CFA03F002FA2849204609F0ACFE18B92748FFF7D0FE10BD2649DA
:40620000204609F0A3FE50BB18490AF0E5FC10B309F021F80446B0F5803F03D91F48FFF7BDFE1FE0FFF79EFE1D48FFF7B7FEA0B2FFF754FF012806D0022808D058B91048FA
:40624000FFF7ACFE0EE01748FFF7A8FE0AE01648FFF7A4FE06E01548FFF7A0FE02E01448FFF79CFEFFF77EFE8BE700BFC03C0200C83C0200D83C0200E03C0200E83C02000F
:40628000243D02002C3D0200343D0200603D0200683D0200703D0200A4340200883D0200A03D0200B83D0200DC3D0200043E02000C3E020008B5C379082B0AD8DFE803F0BE
:4062C0000F110911050909090700114A0AE0114A08E0114B114A8221114808F09BFF114A00E0114A13688BB198420DD1036813600023036008BD1A68904204D102681A6035
:406300000023036008BD1346002BF4D108BD00BFA0000020A400002064460200204602007C460200980000209C00002010B5C379082B0AD8DFE803F00F110911050909094B
:406340000700174B0AE0174B08E0174B174A5221174808F05FFF174B00E0174B1A681AB1447951798C420BD2026018600368984215D1124B0D4A5B210D4808F04BFF1A4646
:40638000136813B159798C42F9D203601060824205D10B4B054A6621054808F03BFF10BDA0000020A400002064460200304602007C460200980000209C00002084460200A2
:4063C0009C46020038B50C46044B1D69084600F03DFF04232370A56038BD00BF9800002030B589B00D46103804AB0022049205920792FF228DF8102006900FCB8DE80F00E6
:40640000284600F023FF9DE80F0085E80F0009B030BD00BF70B51D4B1A6901321A615B685BB1DA79032A08D19A7932B1013AD2B29A7112B9012283F87826144B9C68002136
:4064400013E02568237A7BB9E268104B1B699A420AD12046FFF72EFF0126E6710A23A3712046FFF763FF31462C46002CE9D159B1064B5B6806E0DA79032A02D1012283F821
:4064800078261B68002BF6D170BD00BF9800002038B5FAF73DFA00F087FA2A4C2A4B2B4A21680020FEF72AFD294B2A4A21680020FEF724FD284B294A21680020FEF71EFD34
:4064C000274B284A21680020FEF718FD264B274A21680020FEF712FD254B264A21680020FEF70CFD244B254A21680020FEF706FD226823490020FEF7C3FC0546214B224A83
:4065000001460020FEF7FAFC204B214A29460020FEF7F4FC1F4B204A29460020FEF7EEFC1E4B1F4A29460020FEF7E8FC22681D490020FEF7A5FC1C4B1C4A01460020FEF774
:40654000DDFC38BD3010002069670000AC460200E5660000B4460200FD660000C04602001D670000CC46020049670000DC460200F1670000EC460200E1630000F8460200FB
:406580000047020025680000A0340200916800001447020035690000084702007D690000104702001C470200C56300002047020010B504464FF4D062002108F0C8FE8023AF
:4065C000237163710123E37110BD00BF70B506460C4639B94FF4D060FAF7C4F9044648B3FFF7E6FF0A23A3712379637104F11005284600F0E9FE20B90F48FFF775F8002086
:4066000070BD31462846FFF777FC38B10B48FFF76BF8284600F02CFF002070BDE37913B1284600F05FFF72B62046FFF77FFE62B6204670BD002070BD2847020044470200A1
:4066400038B51A4B5C682CB94FF40461002003F0F7FDF6E70323E371002384F8783604F11005284600F06EFF00280DDA72B62046FFF720FE0023E3712046FFF757FE62B606
:40668000284600F057FFDCE772B6E379032B0BD10123E371A3793BB92046FFF70BFE0A23A3712046FFF742FE62B6CAE79800002038B504460D4672B6FFF7FCFD0023A371B2
:4066C0000422E2712372064B1B691D44E5602046FFF72CFE62B6012384F8783638BD00BF9800002008B589691038FFF7E1FF08BD00238371012380F87836704708B510380A
:40670000FFF7F6FF08BD00BFC9B20171417100238371012380F87836704700BF08B589691038FFF7F1FF08BD10B5044672B6FFF7C1FD0823E3712046FFF7F8FD62B60123DB
:4067400084F8783610BD00BF08B51AB91038FFF7EBFF08BD91F91030B3F1FF3F02D18869FFF7E2FF08BD00BF10B5A0F110041AB92046FFF7D9FF10BD91F91030042B02D012
:40678000052B09D010BD8B694FF47A7101FB03F12046FFF78DFF10BD0022064BD1E9060108F040FA08F0EEFC01462046FFF780FF10BD00BF00408F4010B5044672B60B4BAA
:4067C0005B6806E0DA79032A02D1012283F878261B68002BF6D12046FFF76CFD0123E3712046FFF7A3FD62B610BD00BF9800002008B591F91030B3F1FF3F02D18869FFF734
:40680000DBFF08BD08B5034620B90820FAF7AAF8034620B100221A605A60184608BD002008BD00BF30B585B00C4608238A680146684600F0DBFC9DE80F0084E80F001AB1C9
:4068400010460C30FFF7DEFF05B030BD72B603682BB9012303604160002062B670474368994211D070B50C4605460846FFF722FD0423E37101262672E5602046FFF756FDC9
:4068800084F87866002001E00120E6E762B670BD08B58B68A0F1100103F10C00FFF7D6FF30B1044B044A4FF48F71044808F0B2FC08BD00BF60470200404602007C46020001
:4068C0000368002B30D043688B422FD170B5054672B6174B9C6811E0237A012B0DD1E3689D420AD16C602046FFF7E4FC0126E6712046FFF71BFD334603E02468002CEBD125
:40690000002363B10A4B5B6806E0DA79032A02D1012283F878261B68002BF6D101E000232B6062B6002070BD01207047022070479800002008B58B68A0F1100103F10C006F
:40694000FFF7BEFF30B1044B044A4FF49671044808F060FC08BD00BF7C470200504602007C46020072B6036823B9012303604160002000E0012062B6704700BF10B50C46FA
:406980008B68A0F1100103F10C00FFF7EBFF28B9204600F05BFC0323237010BD204600F055FC0223237010BD08B5FEF75FFFFEF7F1FC08BDF8B506460F46002404EB4402C4
:4069C0009300104AD55AB54206D10E4A13449968384609F0BBFA98B1B54206D904EB4404A300084A13445C8805E004EB4404A300044A13449C88002CE0D14FF0FF30F8BDC3
:406A00002046F8BDAC00002038B5204BD3F8104EB4F5967F07DB0A461D491E48FEF764FE4FF0FF342FE0194D631CC5F8103E630023449A00AB18A8529960002303EB4301FB
:406A40008A0012498A5A90420ED203EB43018A000E490A4452882AB903EB43039A000A44548010E01346E9E703EB43018A0007490A4492882AB903EB43039A000A449480ED
:406A800001E01346DAE7204638BD00BFAC000020AC470200C047020030B589B00D46144BD3F8102E014604A8FAF73EFA00240CE0002300930193039306238DF8003002949E
:406AC000694604A8FAF774FC0134094BD3F8103E9C42EDDB08AB13E90F008DE80F00284600F0B4FB9DE80F0085E80F0009B030BDAC000020002307E003EBC30103EB810393
:406B00009BB213449BB201300278002AF4D11846704700BF2DE9F041044615460023036043608360C360062303701046FFF7E2FF06462946FFF73EFF00B2002801DBA0606E
:406B400011E0284609F014FA471C3846F9F70AFF804640B13A46294608F0D3FB41463046FFF752FFA0602046BDE8F08138B50446FFF7C0FF05462146FFF71CFF00B2002820
:406B800004DA21462846FFF73FFF00B238BD00BF00280BDB074BD3F8103E984208DA00EB40008300034A1344986870470020704700207047AC00002070B584B006460C46D9
:406BC000B1F90800FFF7E4FF024631466846FCF783FC9DE80F0084E80F0004B070BD00BFF0B585B007460C46B1F90800FFF7D0FF0646074A39466846FCF76EFC9DE80F00D1
:406C000084E80F0031462046FCF79CFE05B0F0BDD847020070B50446134B1A681349FEF72FF90146124D2860124B134A2046FEF765F9124B124A29682046FEF75FF9114E27
:406C40003346114A29682046FEF758F933460F4A29682046FEF752F90D4B0E4A29682046FEF74CF970BD00BF30100020DC4702002C100020996A0000E4470200E16B0000D0
:406C8000E4360200B96B000094360200F0470200ED440000E839020010B50446D0F8A830984794F89030184214D0E3889BB2A288934201D301232372237A13F0FF0F09D157
:406CC000D4F8AC102068E3889BB25A1C92B2E280C05C884710BD00BF38B50446D0F8A43098472BE094F89130034224D0E589ADB26B1C9BB2E381D4F8B03098472544287461
:406D0000E3899BB27F2B0BD8E28992B2A3899BB29A4210D1E3899BB2013B9BB2E3810AE0A3899BB22BB9E3899BB2013B9BB2E38101E00023E381D4F8A43098470028D1D1E4
:406D400038BD00BF38B50446002020600A256581012525726072A081E08184F8901084F89120C4F89430049AC4F89820059AC4F89C20069AC4F8A020079AC4F8A820089A8D
:406D8000C4F8A420099AC4F8AC200A9AC4F8B0209847D4F89C3003B19847D4F8A03003B1984738BD08B5D0F89C30984708BD00BF10B50446D0F8A03098470023A381E381E5
:406DC00010BD00BF037A13F0FF0F1BD0E2B110B50446016082800123C38000230372D0F8AC3008789847637A13F0010F0ED14021002003F025FA237A13F0FF0FF7D0E08848
:406E000080B210BD0020704700207047002010BDF8B504460D461746164600E00D46A28992B2E3899BB29A4205D14021002003F007FA2946F2E7691CA3899BB25A1C92B233
:406E4000A28123441B7C2B70A3899BB27F2B01D90023A381013EE1D1B81BF8BD38B505460C46084609F084F8024621462846FFF7A9FF38BDF8B504460D461746561E00E0A1
:406E80000D46A28992B2E3899BB29A4205D14021002003F0D5F92946F2E7691CA3899BB25A1C92B2A28123441B7CDBB22B70A28992B27F2A01D90022A281013E03D0B4F924
:406EC0000A209342DCD100236B70B81B0138F8BD828992B2C3899BB29A4205D8C3899BB2808980B2181A7047C3899BB2808980B2181A8030704700BF83899BB20CE05A1CE2
:406F000092B203441B7CDBB2B0F90A108B4209D000237F2A00D81346C28992B29342EED1002070470120704710B50C461021F9F7E5FE034600B10470184610BD38B50D4676
:406F40001021F9F7DBFE044638B1012303802846FFF70CFEA0800023A360204638BD00BF2DE9F0410C4690F9003091F90020934223D0042B0BD1052A09D1806807F0ECFDCF
:406F800006460F4604F10805D5E9004562E0052B09D1042A07D1D0E90267A06807F0DCFD04460D4656E00BB9012A6CD0012B01D1002A6BD0981ABDE8F081013B182B68D8F7
:406FC000DFE803F00D0D0D1015101A6767676767676767676767671A1A2A2E4044000020BDE8F08183688868181ABDE8F081D0E90267D1E902452DE08168A268914201D15C
:40700000002001E04FF0FF30914201D9022300E000231844BDE8F081FAF792FBBDE8F08189688C8883689D882246AC4228BF2A468968986808F056F910B9281BBDE8F081EA
:40704000BDE8F081FBF78AFEBDE8F081FAF7FCFFBDE8F08122462B463046394608F04AF810B14FF0000801E04FF0FF3822462B463046394608F066F808B1022000E0002002
:407080004044BDE8F0810020BDE8F0810020BDE8F0810120BDE8F08110B50C4601460020FDF750FC02E0A04203D040680028FAD110BD012010BD00BF08B590F90030143B64
:4070C000052B12D8826813882BB9084B084AB021084808F09FF8FF2B05D1074B044AB121044808F097F80133138008BD1C480200F8470200384802004048020008B590F9EE
:407100000030163B032B0ED8DFE803F00205080BF9F7BEFF08BDFCF747FB08BDFBF70EFE08BDF9F7B5FF08BD30B403461A782B2A04D02D2A04D0202A05D107E0002500E02F
:407140000125013300E00025002013E00133EDE7602B01DD573B08E0402B01DD373B04E0A3F13004092C09D823468B4206DA01FB003013465A1C1B78002BE9D105B1404274
:4071800030BC704708B51C21F9F7B8FD034638B10022026042608260C260026142618261184608BD38B50446002505E0236953F82500F9F7F1FC013523899D42F6DB13B1B5
:4071C0002069F9F7E9FC002505E0A36953F82500FFF7E8FF0135A3889D42F6DB13B1A069F9F7DAFC2046F9F7D7FC38BDF8B504460E4617460022026042608260C260142204
:40720000027003F10C013046F9F778FDA06088B1054600213046FEF72BFCA86028B92846F9F7BAFC0023A36004E001232B801423AB706F602046F8BD10B5044683689868BD
